{
  "abi": [
    {
      "type": "function",
      "name": "businesses",
      "inputs": [
        {
          "name": "",
          "type": "bytes32",
          "internalType": "bytes32"
        }
      ],
      "outputs": [
        {
          "name": "owner",
          "type": "address",
          "internalType": "address"
        },
        {
          "name": "name",
          "type": "string",
          "internalType": "string"
        },
        {
          "name": "rewardThreshold",
          "type": "uint256",
          "internalType": "uint256"
        },
        {
          "name": "rewardAmount",
          "type": "uint256",
          "internalType": "uint256"
        },
        {
          "name": "isActive",
          "type": "bool",
          "internalType": "bool"
        },
        {
          "name": "paymentAddress",
          "type": "address",
          "internalType": "address"
        },
        {
          "name": "businessContext",
          "type": "string",
          "internalType": "string"
        }
      ],
      "stateMutability": "view"
    },
    {
      "type": "function",
      "name": "getBusinessInfo",
      "inputs": [
        {
          "name": "businessHash",
          "type": "bytes32",
          "internalType": "bytes32"
        }
      ],
      "outputs": [
        {
          "name": "owner",
          "type": "address",
          "internalType": "address"
        },
        {
          "name": "name",
          "type": "string",
          "internalType": "string"
        },
        {
          "name": "rewardThreshold",
          "type": "uint256",
          "internalType": "uint256"
        },
        {
          "name": "rewardAmount",
          "type": "uint256",
          "internalType": "uint256"
        },
        {
          "name": "isActive",
          "type": "bool",
          "internalType": "bool"
        },
        {
          "name": "paymentAddress",
          "type": "address",
          "internalType": "address"
        },
        {
          "name": "businessContext",
          "type": "string",
          "internalType": "string"
        }
      ],
      "stateMutability": "view"
    },
    {
      "type": "function",
      "name": "getPoints",
      "inputs": [
        {
          "name": "businessHash",
          "type": "bytes32",
          "internalType": "bytes32"
        },
        {
          "name": "user",
          "type": "address",
          "internalType": "address"
        }
      ],
      "outputs": [
        {
          "name": "",
          "type": "uint256",
          "internalType": "uint256"
        }
      ],
      "stateMutability": "view"
    },
    {
      "type": "function",
      "name": "getTransactionCount",
      "inputs": [
        {
          "name": "businessHash",
          "type": "bytes32",
          "internalType": "bytes32"
        }
      ],
      "outputs": [
        {
          "name": "",
          "type": "uint256",
          "internalType": "uint256"
        }
      ],
      "stateMutability": "view"
    },
    {
      "type": "function",
      "name": "recordTransaction",
      "inputs": [
        {
          "name": "businessHash",
          "type": "bytes32",
          "internalType": "bytes32"
        },
        {
          "name": "user",
          "type": "address",
          "internalType": "address"
        },
        {
          "name": "amount",
          "type": "uint256",
          "internalType": "uint256"
        }
      ],
      "outputs": [],
      "stateMutability": "nonpayable"
    },
    {
      "type": "function",
      "name": "registerBusiness",
      "inputs": [
        {
          "name": "businessHash",
          "type": "bytes32",
          "internalType": "bytes32"
        },
        {
          "name": "name",
          "type": "string",
          "internalType": "string"
        },
        {
          "name": "rewardThreshold",
          "type": "uint256",
          "internalType": "uint256"
        },
        {
          "name": "rewardAmount",
          "type": "uint256",
          "internalType": "uint256"
        },
        {
          "name": "paymentAddress",
          "type": "address",
          "internalType": "address"
        },
        {
          "name": "businessContext",
          "type": "string",
          "internalType": "string"
        }
      ],
      "outputs": [],
      "stateMutability": "nonpayable"
    },
    {
      "type": "function",
      "name": "transactions",
      "inputs": [
        {
          "name": "",
          "type": "bytes32",
          "internalType": "bytes32"
        },
        {
          "name": "",
          "type": "uint256",
          "internalType": "uint256"
        }
      ],
      "outputs": [
        {
          "name": "user",
          "type": "address",
          "internalType": "address"
        },
        {
          "name": "amount",
          "type": "uint256",
          "internalType": "uint256"
        },
        {
          "name": "timestamp",
          "type": "uint256",
          "internalType": "uint256"
        }
      ],
      "stateMutability": "view"
    },
    {
      "type": "function",
      "name": "updateRewardConfig",
      "inputs": [
        {
          "name": "businessHash",
          "type": "bytes32",
          "internalType": "bytes32"
        },
        {
          "name": "newThreshold",
          "type": "uint256",
          "internalType": "uint256"
        },
        {
          "name": "newAmount",
          "type": "uint256",
          "internalType": "uint256"
        }
      ],
      "outputs": [],
      "stateMutability": "nonpayable"
    },
    {
      "type": "function",
      "name": "userPoints",
      "inputs": [
        {
          "name": "",
          "type": "bytes32",
          "internalType": "bytes32"
        },
        {
          "name": "",
          "type": "address",
          "internalType": "address"
        }
      ],
      "outputs": [
        {
          "name": "",
          "type": "uint256",
          "internalType": "uint256"
        }
      ],
      "stateMutability": "view"
    },
    {
      "type": "event",
      "name": "BusinessRegistered",
      "inputs": [
        {
          "name": "businessHash",
          "type": "bytes32",
          "indexed": true,
          "internalType": "bytes32"
        },
        {
          "name": "name",
          "type": "string",
          "indexed": false,
          "internalType": "string"
        },
        {
          "name": "owner",
          "type": "address",
          "indexed": false,
          "internalType": "address"
        }
      ],
      "anonymous": false
    },
    {
      "type": "event",
      "name": "PointsEarned",
      "inputs": [
        {
          "name": "businessHash",
          "type": "bytes32",
          "indexed": true,
          "internalType": "bytes32"
        },
        {
          "name": "user",
          "type": "address",
          "indexed": true,
          "internalType": "address"
        },
        {
          "name": "points",
          "type": "uint256",
          "indexed": false,
          "internalType": "uint256"
        }
      ],
      "anonymous": false
    },
    {
      "type": "event",
      "name": "RewardClaimed",
      "inputs": [
        {
          "name": "businessHash",
          "type": "bytes32",
          "indexed": true,
          "internalType": "bytes32"
        },
        {
          "name": "user",
          "type": "address",
          "indexed": true,
          "internalType": "address"
        },
        {
          "name": "amount",
          "type": "uint256",
          "indexed": false,
          "internalType": "uint256"
        }
      ],
      "anonymous": false
    }
  ],
  "bytecode": {
    "object": "0x608060405234801561000f575f80fd5b50610e578061001d5f395ff3fe608060405234801561000f575f80fd5b5060043610610090575f3560e01c80637676810611610063578063767681061461011f578063892f917114610132578063a1fb4acb1461016a578063a58ee4c814610189578063ad1f43d31461019c575f80fd5b80630fb2d18c146100945780633bde5981146100d157806361de3a58146100f75780637348e5331461010c575b5f80fd5b6100a76100a23660046109db565b6101af565b604080516001600160a01b0390941684526020840192909252908201526060015b60405180910390f35b6100e46100df3660046109fb565b6101f7565b6040516100c89796959493929190610a55565b61010a610105366004610ace565b610358565b005b61010a61011a366004610b00565b610524565b61010a61012d366004610bc6565b61059d565b61015c610140366004610c50565b600160209081525f928352604080842090915290825290205481565b6040519081526020016100c8565b61015c6101783660046109fb565b5f9081526002602052604090205490565b6100e46101973660046109fb565b61073a565b61015c6101aa366004610c50565b6108b8565b6002602052815f5260405f2081815481106101c8575f80fd5b5f9182526020909120600390910201805460018201546002909201546001600160a01b03909116935090915083565b5f60208190529081526040902080546001820180546001600160a01b03909216929161022290610c7a565b80601f016020809104026020016040519081016040528092919081815260200182805461024e90610c7a565b80156102995780601f1061027057610100808354040283529160200191610299565b820191905f5260205f20905b81548152906001019060200180831161027c57829003601f168201915b505050506002830154600384015460048501546005860180549596939592945060ff8216936101009092046001600160a01b0316926102d790610c7a565b80601f016020809104026020016040519081016040528092919081815260200182805461030390610c7a565b801561034e5780601f106103255761010080835404028352916020019161034e565b820191905f5260205f20905b81548152906001019060200180831161033157829003601f168201915b5050505050905087565b5f8381526020819052604090205483906001600160a01b031633146103b95760405162461bcd60e51b81526020600482015260126024820152712737ba10313ab9b4b732b9b99037bbb732b960711b60448201526064015b60405180910390fd5b5f8481526020819052604090206004015460ff1661040f5760405162461bcd60e51b8152602060048201526013602482015272427573696e657373206e6f742061637469766560681b60448201526064016103b0565b5f84815260026020818152604080842081516060810183526001600160a01b038981168083528286018a815242848701908152855460018082018855968b52888b209551600390910290950180546001600160a01b031916959094169490941783555182850155915195019490945588855282528084209284529190528120805484929061049e908490610cc6565b90915550506040518281526001600160a01b0384169085907fff041da98cfd457d6429785969509880f0239fd88dfc124361b871fe189c687d9060200160405180910390a35f8481526020818152604080832060020154600183528184206001600160a01b0388168552909252909120541061051e5761051e84846108e1565b50505050565b5f8381526020819052604090205483906001600160a01b031633146105805760405162461bcd60e51b81526020600482015260126024820152712737ba10313ab9b4b732b9b99037bbb732b960711b60448201526064016103b0565b505f92835260208390526040909220600281019190915560030155565b5f8681526020819052604090206004015460ff16156105fe5760405162461bcd60e51b815260206004820152601b60248201527f427573696e65737320616c72656164792072656769737465726564000000000060448201526064016103b0565b6040805160e08101825233815260208101879052908101859052606081018490526001608082015260a081016001600160a01b0384161561063f5783610641565b335b6001600160a01b03908116825260209182018490525f89815280835260409020835181546001600160a01b031916921691909117815590820151600182019061068a9082610d25565b506040820151600282015560608201516003820155608082015160048201805460a08501516001600160a01b031661010002610100600160a81b0319931515939093166001600160a81b03199091161791909117905560c082015160058201906106f49082610d25565b50905050857ffe880ee1dc1393b79a9f14d9792d75f52d7a494b356207faa6716b750b2f92aa863360405161072a929190610de5565b60405180910390a2505050505050565b5f818152602081905260408120805460028201546003830154600484015460018501805460609688968796879687968b9694956001600160a01b03948516959460ff831692610100900416906005880190869061079690610c7a565b80601f01602080910402602001604051908101604052809291908181526020018280546107c290610c7a565b801561080d5780601f106107e45761010080835404028352916020019161080d565b820191905f5260205f20905b8154815290600101906020018083116107f057829003601f168201915b5050505050955080805461082090610c7a565b80601f016020809104026020016040519081016040528092919081815260200182805461084c90610c7a565b80156108975780601f1061086e57610100808354040283529160200191610897565b820191905f5260205f20905b81548152906001019060200180831161087a57829003601f168201915b50505050509050975097509750975097509750975050919395979092949650565b5f8281526001602090815260408083206001600160a01b03851684529091529020545b92915050565b5f828152602081815260408083206002810154600184528285206001600160a01b038716865290935292205410156109515760405162461bcd60e51b8152602060048201526013602482015272496e73756666696369656e7420706f696e747360681b60448201526064016103b0565b60028101545f8481526001602090815260408083206001600160a01b038716845290915281208054909190610987908490610e0e565b92505081905550816001600160a01b0316837ffe236dfc7ce073698734b89da1aee0e7551c9c6d264404c502e6e8fefc1132a883600301546040516109ce91815260200190565b60405180910390a3505050565b5f80604083850312156109ec575f80fd5b50508035926020909101359150565b5f60208284031215610a0b575f80fd5b5035919050565b5f81518084525f5b81811015610a3657602081850181015186830182015201610a1a565b505f602082860101526020601f19601f83011685010191505092915050565b5f60018060a01b03808a16835260e06020840152610a7660e084018a610a12565b886040850152876060850152861515608085015281861660a085015283810360c0850152610aa48186610a12565b9b9a5050505050505050505050565b80356001600160a01b0381168114610ac9575f80fd5b919050565b5f805f60608486031215610ae0575f80fd5b83359250610af060208501610ab3565b9150604084013590509250925092565b5f805f60608486031215610b12575f80fd5b505081359360208301359350604090920135919050565b634e487b7160e01b5f52604160045260245ffd5b5f82601f830112610b4c575f80fd5b813567ffffffffffffffff80821115610b6757610b67610b29565b604051601f8301601f19908116603f01168101908282118183101715610b8f57610b8f610b29565b81604052838152866020858801011115610ba7575f80fd5b836020870160208301375f602085830101528094505050505092915050565b5f805f805f8060c08789031215610bdb575f80fd5b86359550602087013567ffffffffffffffff80821115610bf9575f80fd5b610c058a838b01610b3d565b96506040890135955060608901359450610c2160808a01610ab3565b935060a0890135915080821115610c36575f80fd5b50610c4389828a01610b3d565b9150509295509295509295565b5f8060408385031215610c61575f80fd5b82359150610c7160208401610ab3565b90509250929050565b600181811c90821680610c8e57607f821691505b602082108103610cac57634e487b7160e01b5f52602260045260245ffd5b50919050565b634e487b7160e01b5f52601160045260245ffd5b808201808211156108db576108db610cb2565b601f821115610d2057805f5260205f20601f840160051c81016020851015610cfe5750805b601f840160051c820191505b81811015610d1d575f8155600101610d0a565b50505b505050565b815167ffffffffffffffff811115610d3f57610d3f610b29565b610d5381610d4d8454610c7a565b84610cd9565b602080601f831160018114610d86575f8415610d6f5750858301515b5f19600386901b1c1916600185901b178555610ddd565b5f85815260208120601f198616915b82811015610db457888601518255948401946001909101908401610d95565b5085821015610dd157878501515f19600388901b60f8161c191681555b505060018460011b0185555b505050505050565b604081525f610df76040830185610a12565b905060018060a01b03831660208301529392505050565b818103818111156108db576108db610cb256fea2646970667358221220f39b009fafed780fe4e6356f451e642c71f65c36794cc4105286f9213a07efb064736f6c63430008170033",
    "linkReferences": {}
  },
  "methodIdentifiers": {
    "businesses(bytes32)": "3bde5981",
    "getBusinessInfo(bytes32)": "a58ee4c8",
    "getPoints(bytes32,address)": "ad1f43d3",
    "getTransactionCount(bytes32)": "a1fb4acb",
    "recordTransaction(bytes32,address,uint256)": "61de3a58",
    "registerBusiness(bytes32,string,uint256,uint256,address,string)": "76768106",
    "transactions(bytes32,uint256)": "0fb2d18c",
    "updateRewardConfig(bytes32,uint256,uint256)": "7348e533",
    "userPoints(bytes32,address)": "892f9171"
  },
  "id": 15
}