{
  "data": {
    "bytecode": {
      "linkReferences": {},
      "object": "6080604052348015600e575f80fd5b506119758061001c5f395ff3fe608060405260043610610090575f3560e01c8063892f917111610058578063892f917114610180578063a1fb4acb146101bc578063a58ee4c8146101f8578063ad1f43d31461023a578063f9d0ff061461027657610090565b80630fb2d18c146100945780633bde5981146100d257806341c2154f146101145780637348e533146101305780637676810614610158575b5f80fd5b34801561009f575f80fd5b506100ba60048036038101906100b59190610f46565b6102b2565b6040516100c993929190610fd2565b60405180910390f35b3480156100dd575f80fd5b506100f860048036038101906100f39190611007565b610311565b60405161010b97969594939291906110bc565b60405180910390f35b61012e60048036038101906101299190611161565b6104a5565b005b34801561013b575f80fd5b506101566004803603810190610151919061119f565b610721565b005b348015610163575f80fd5b5061017e6004803603810190610179919061131b565b6107f7565b005b34801561018b575f80fd5b506101a660048036038101906101a19190611161565b610a32565b6040516101b391906113dc565b60405180910390f35b3480156101c7575f80fd5b506101e260048036038101906101dd9190611007565b610a52565b6040516101ef91906113dc565b60405180910390f35b348015610203575f80fd5b5061021e60048036038101906102199190611007565b610a6f565b60405161023197969594939291906110bc565b60405180910390f35b348015610245575f80fd5b50610260600480360381019061025b9190611161565b610c24565b60405161026d91906113dc565b60405180910390f35b348015610281575f80fd5b5061029c60048036038101906102979190611161565b610c7a565b6040516102a991906113f5565b60405180910390f35b6002602052815f5260405f2081815481106102cb575f80fd5b905f5260205f2090600302015f9150915050805f015f9054906101000a900473ffffffffffffffffffffffffffffffffffffffff16908060010154908060020154905083565b5f602052805f5260405f205f91509050805f015f9054906101000a900473ffffffffffffffffffffffffffffffffffffffff169080600101805461035490611442565b80601f016020809104026020016040519081016040528092919081815260200182805461038090611442565b80156103cb5780601f106103a2576101008083540402835291602001916103cb565b820191905f5260205f20905b8154815290600101906020018083116103ae57829003601f168201915b505050505090806002015490806003015490806004015f9054906101000a900460ff16908060040160019054906101000a900473ffffffffffffffffffffffffffffffffffffffff169080600501805461042490611442565b80601f016020809104026020016040519081016040528092919081815260200182805461045090611442565b801561049b5780601f106104725761010080835404028352916020019161049b565b820191905f5260205f20905b81548152906001019060200180831161047e57829003601f168201915b5050505050905087565b813373ffffffffffffffffffffffffffffffffffffffff165f808381526020019081526020015f205f015f9054906101000a900473ffffffffffffffffffffffffffffffffffffffff1673ffffffffffffffffffffffffffffffffffffffff1614610545576040517f08c379a000000000000000000000000000000000000000000000000000000000815260040161053c906114bc565b60405180910390fd5b5f808481526020019081526020015f206004015f9054906101000a900460ff166105a4576040517f08c379a000000000000000000000000000000000000000000000000000000000815260040161059b90611524565b60405180910390fd5b5f34905060025f8581526020019081526020015f2060405180606001604052808573ffffffffffffffffffffffffffffffffffffffff16815260200183815260200142815250908060018154018082558091505060019003905f5260205f2090600302015f909190919091505f820151815f015f6101000a81548173ffffffffffffffffffffffffffffffffffffffff021916908373ffffffffffffffffffffffffffffffffffffffff160217905550602082015181600101556040820151816002015550508060015f8681526020019081526020015f205f8573ffffffffffffffffffffffffffffffffffffffff1673ffffffffffffffffffffffffffffffffffffffff1681526020019081526020015f205f8282546106c5919061156f565b925050819055508273ffffffffffffffffffffffffffffffffffffffff16847fff041da98cfd457d6429785969509880f0239fd88dfc124361b871fe189c687d8360405161071391906113dc565b60405180910390a350505050565b823373ffffffffffffffffffffffffffffffffffffffff165f808381526020019081526020015f205f015f9054906101000a900473ffffffffffffffffffffffffffffffffffffffff1673ffffffffffffffffffffffffffffffffffffffff16146107c1576040517f08c379a00000000000000000000000000000000000000000000000000000000081526004016107b8906114bc565b60405180910390fd5b825f808681526020019081526020015f2060020181905550815f808681526020019081526020015f206003018190555050505050565b5f808781526020019081526020015f206004015f9054906101000a900460ff1615610857576040517f08c379a000000000000000000000000000000000000000000000000000000000815260040161084e906115ec565b60405180910390fd5b6040518060e001604052803373ffffffffffffffffffffffffffffffffffffffff1681526020018681526020018581526020018481526020016001151581526020015f73ffffffffffffffffffffffffffffffffffffffff168473ffffffffffffffffffffffffffffffffffffffff16146108d257836108d4565b335b73ffffffffffffffffffffffffffffffffffffffff168152602001828152505f808881526020019081526020015f205f820151815f015f6101000a81548173ffffffffffffffffffffffffffffffffffffffff021916908373ffffffffffffffffffffffffffffffffffffffff160217905550602082015181600101908161095c91906117a7565b5060408201518160020155606082015181600301556080820151816004015f6101000a81548160ff02191690831515021790555060a08201518160040160016101000a81548173ffffffffffffffffffffffffffffffffffffffff021916908373ffffffffffffffffffffffffffffffffffffffff16021790555060c08201518160050190816109ec91906117a7565b50905050857ffe880ee1dc1393b79a9f14d9792d75f52d7a494b356207faa6716b750b2f92aa8633604051610a22929190611876565b60405180910390a2505050505050565b6001602052815f5260405f20602052805f5260405f205f91509150505481565b5f60025f8381526020019081526020015f20805490509050919050565b5f60605f805f8060605f805f8a81526020019081526020015f209050805f015f9054906101000a900473ffffffffffffffffffffffffffffffffffffffff168160010182600201548360030154846004015f9054906101000a900460ff168560040160019054906101000a900473ffffffffffffffffffffffffffffffffffffffff1686600501858054610b0290611442565b80601f0160208091040260200160405190810160405280929190818152602001828054610b2e90611442565b8015610b795780601f10610b5057610100808354040283529160200191610b79565b820191905f5260205f20905b815481529060010190602001808311610b5c57829003601f168201915b50505050509550808054610b8c90611442565b80601f0160208091040260200160405190810160405280929190818152602001828054610bb890611442565b8015610c035780601f10610bda57610100808354040283529160200191610c03565b820191905f5260205f20905b815481529060010190602001808311610be657829003601f168201915b50505050509050975097509750975097509750975050919395979092949650565b5f60015f8481526020019081526020015f205f8373ffffffffffffffffffffffffffffffffffffffff1673ffffffffffffffffffffffffffffffffffffffff1681526020019081526020015f2054905092915050565b6060823373ffffffffffffffffffffffffffffffffffffffff165f808381526020019081526020015f205f015f9054906101000a900473ffffffffffffffffffffffffffffffffffffffff1673ffffffffffffffffffffffffffffffffffffffff1614610d1c576040517f08c379a0000000000000000000000000000000000000000000000000000000008152600401610d13906114bc565b60405180910390fd5b610d268484610d2f565b91505092915050565b60605f805f8581526020019081526020015f209050806002015460015f8681526020019081526020015f205f8573ffffffffffffffffffffffffffffffffffffffff1673ffffffffffffffffffffffffffffffffffffffff1681526020019081526020015f20541015610dd7576040517f08c379a0000000000000000000000000000000000000000000000000000000008152600401610dce906118ee565b60405180910390fd5b806002015460015f8681526020019081526020015f205f8573ffffffffffffffffffffffffffffffffffffffff1673ffffffffffffffffffffffffffffffffffffffff1681526020019081526020015f205f828254610e36919061190c565b925050819055508273ffffffffffffffffffffffffffffffffffffffff16847ffe236dfc7ce073698734b89da1aee0e7551c9c6d264404c502e6e8fefc1132a88360030154604051610e8891906113dc565b60405180910390a36040518060400160405280600e81526020017f52657761726420636c61696d656400000000000000000000000000000000000081525091505092915050565b5f604051905090565b5f80fd5b5f80fd5b5f819050919050565b610ef281610ee0565b8114610efc575f80fd5b50565b5f81359050610f0d81610ee9565b92915050565b5f819050919050565b610f2581610f13565b8114610f2f575f80fd5b50565b5f81359050610f4081610f1c565b92915050565b5f8060408385031215610f5c57610f5b610ed8565b5b5f610f6985828601610eff565b9250506020610f7a85828601610f32565b9150509250929050565b5f73ffffffffffffffffffffffffffffffffffffffff82169050919050565b5f610fad82610f84565b9050919050565b610fbd81610fa3565b82525050565b610fcc81610f13565b82525050565b5f606082019050610fe55f830186610fb4565b610ff26020830185610fc3565b610fff6040830184610fc3565b949350505050565b5f6020828403121561101c5761101b610ed8565b5b5f61102984828501610eff565b91505092915050565b5f81519050919050565b5f82825260208201905092915050565b8281835e5f83830152505050565b5f601f19601f8301169050919050565b5f61107482611032565b61107e818561103c565b935061108e81856020860161104c565b6110978161105a565b840191505092915050565b5f8115159050919050565b6110b6816110a2565b82525050565b5f60e0820190506110cf5f83018a610fb4565b81810360208301526110e1818961106a565b90506110f06040830188610fc3565b6110fd6060830187610fc3565b61110a60808301866110ad565b61111760a0830185610fb4565b81810360c0830152611129818461106a565b905098975050505050505050565b61114081610fa3565b811461114a575f80fd5b50565b5f8135905061115b81611137565b92915050565b5f806040838503121561117757611176610ed8565b5b5f61118485828601610eff565b92505060206111958582860161114d565b9150509250929050565b5f805f606084860312156111b6576111b5610ed8565b5b5f6111c386828701610eff565b93505060206111d486828701610f32565b92505060406111e586828701610f32565b9150509250925092565b5f80fd5b5f80fd5b7f4e487b71000000000000000000000000000000000000000000000000000000005f52604160045260245ffd5b61122d8261105a565b810181811067ffffffffffffffff8211171561124c5761124b6111f7565b5b80604052505050565b5f61125e610ecf565b905061126a8282611224565b919050565b5f67ffffffffffffffff821115611289576112886111f7565b5b6112928261105a565b9050602081019050919050565b828183375f83830152505050565b5f6112bf6112ba8461126f565b611255565b9050828152602081018484840111156112db576112da6111f3565b5b6112e684828561129f565b509392505050565b5f82601f830112611302576113016111ef565b5b81356113128482602086016112ad565b91505092915050565b5f805f805f8060c0878903121561133557611334610ed8565b5b5f61134289828a01610eff565b965050602087013567ffffffffffffffff81111561136357611362610edc565b5b61136f89828a016112ee565b955050604061138089828a01610f32565b945050606061139189828a01610f32565b93505060806113a289828a0161114d565b92505060a087013567ffffffffffffffff8111156113c3576113c2610edc565b5b6113cf89828a016112ee565b9150509295509295509295565b5f6020820190506113ef5f830184610fc3565b92915050565b5f6020820190508181035f83015261140d818461106a565b905092915050565b7f4e487b71000000000000000000000000000000000000000000000000000000005f52602260045260245ffd5b5f600282049050600182168061145957607f821691505b60208210810361146c5761146b611415565b5b50919050565b7f4e6f7420627573696e657373206f776e657200000000000000000000000000005f82015250565b5f6114a660128361103c565b91506114b182611472565b602082019050919050565b5f6020820190508181035f8301526114d38161149a565b9050919050565b7f427573696e657373206e6f7420616374697665000000000000000000000000005f82015250565b5f61150e60138361103c565b9150611519826114da565b602082019050919050565b5f6020820190508181035f83015261153b81611502565b9050919050565b7f4e487b71000000000000000000000000000000000000000000000000000000005f52601160045260245ffd5b5f61157982610f13565b915061158483610f13565b925082820190508082111561159c5761159b611542565b5b92915050565b7f427573696e65737320616c7265616479207265676973746572656400000000005f82015250565b5f6115d6601b8361103c565b91506115e1826115a2565b602082019050919050565b5f6020820190508181035f830152611603816115ca565b9050919050565b5f819050815f5260205f209050919050565b5f6020601f8301049050919050565b5f82821b905092915050565b5f600883026116667fffffffffffffffffffffffffffffffffffffffffffffffffffffffffffffffff8261162b565b611670868361162b565b95508019841693508086168417925050509392505050565b5f819050919050565b5f6116ab6116a66116a184610f13565b611688565b610f13565b9050919050565b5f819050919050565b6116c483611691565b6116d86116d0826116b2565b848454611637565b825550505050565b5f90565b6116ec6116e0565b6116f78184846116bb565b505050565b5b8181101561171a5761170f5f826116e4565b6001810190506116fd565b5050565b601f82111561175f576117308161160a565b6117398461161c565b81016020851015611748578190505b61175c6117548561161c565b8301826116fc565b50505b505050565b5f82821c905092915050565b5f61177f5f1984600802611764565b1980831691505092915050565b5f6117978383611770565b9150826002028217905092915050565b6117b082611032565b67ffffffffffffffff8111156117c9576117c86111f7565b5b6117d38254611442565b6117de82828561171e565b5f60209050601f83116001811461180f575f84156117fd578287015190505b611807858261178c565b86555061186e565b601f19841661181d8661160a565b5f5b828110156118445784890151825560018201915060208501945060208101905061181f565b86831015611861578489015161185d601f891682611770565b8355505b6001600288020188555050505b505050505050565b5f6040820190508181035f83015261188e818561106a565b905061189d6020830184610fb4565b9392505050565b7f496e73756666696369656e7420706f696e7473000000000000000000000000005f82015250565b5f6118d860138361103c565b91506118e3826118a4565b602082019050919050565b5f6020820190508181035f830152611905816118cc565b9050919050565b5f61191682610f13565b915061192183610f13565b925082820390508181111561193957611938611542565b5b9291505056fea26469706673582212204bd6327388b3635edd1d6d7396c47623ce924854cc19cceda0968ed77fb8b79664736f6c634300081a0033",
      "opcodes": "PUSH1 0x80 PUSH1 0x40 MSTORE CALLVALUE DUP1 ISZERO PUSH1 0xE JUMPI PUSH0 DUP1 REVERT JUMPDEST POP PUSH2 0x1975 DUP1 PUSH2 0x1C PUSH0 CODECOPY PUSH0 RETURN INVALID PUSH1 0x80 PUSH1 0x40 MSTORE PUSH1 0x4 CALLDATASIZE LT PUSH2 0x90 JUMPI PUSH0 CALLDATALOAD PUSH1 0xE0 SHR DUP1 PUSH4 0x892F9171 GT PUSH2 0x58 JUMPI DUP1 PUSH4 0x892F9171 EQ PUSH2 0x180 JUMPI DUP1 PUSH4 0xA1FB4ACB EQ PUSH2 0x1BC JUMPI DUP1 PUSH4 0xA58EE4C8 EQ PUSH2 0x1F8 JUMPI DUP1 PUSH4 0xAD1F43D3 EQ PUSH2 0x23A JUMPI DUP1 PUSH4 0xF9D0FF06 EQ PUSH2 0x276 JUMPI PUSH2 0x90 JUMP JUMPDEST DUP1 PUSH4 0xFB2D18C EQ PUSH2 0x94 JUMPI DUP1 PUSH4 0x3BDE5981 EQ PUSH2 0xD2 JUMPI DUP1 PUSH4 0x41C2154F EQ PUSH2 0x114 JUMPI DUP1 PUSH4 0x7348E533 EQ PUSH2 0x130 JUMPI DUP1 PUSH4 0x76768106 EQ PUSH2 0x158 JUMPI JUMPDEST PUSH0 DUP1 REVERT JUMPDEST CALLVALUE DUP1 ISZERO PUSH2 0x9F JUMPI PUSH0 DUP1 REVERT JUMPDEST POP PUSH2 0xBA PUSH1 0x4 DUP1 CALLDATASIZE SUB DUP2 ADD SWAP1 PUSH2 0xB5 SWAP2 SWAP1 PUSH2 0xF46 JUMP JUMPDEST PUSH2 0x2B2 JUMP JUMPDEST PUSH1 0x40 MLOAD PUSH2 0xC9 SWAP4 SWAP3 SWAP2 SWAP1 PUSH2 0xFD2 JUMP JUMPDEST PUSH1 0x40 MLOAD DUP1 SWAP2 SUB SWAP1 RETURN JUMPDEST CALLVALUE DUP1 ISZERO PUSH2 0xDD JUMPI PUSH0 DUP1 REVERT JUMPDEST POP PUSH2 0xF8 PUSH1 0x4 DUP1 CALLDATASIZE SUB DUP2 ADD SWAP1 PUSH2 0xF3 SWAP2 SWAP1 PUSH2 0x1007 JUMP JUMPDEST PUSH2 0x311 JUMP JUMPDEST PUSH1 0x40 MLOAD PUSH2 0x10B SWAP8 SWAP7 SWAP6 SWAP5 SWAP4 SWAP3 SWAP2 SWAP1 PUSH2 0x10BC JUMP JUMPDEST PUSH1 0x40 MLOAD DUP1 SWAP2 SUB SWAP1 RETURN JUMPDEST PUSH2 0x12E PUSH1 0x4 DUP1 CALLDATASIZE SUB DUP2 ADD SWAP1 PUSH2 0x129 SWAP2 SWAP1 PUSH2 0x1161 JUMP JUMPDEST PUSH2 0x4A5 JUMP JUMPDEST STOP JUMPDEST CALLVALUE DUP1 ISZERO PUSH2 0x13B JUMPI PUSH0 DUP1 REVERT JUMPDEST POP PUSH2 0x156 PUSH1 0x4 DUP1 CALLDATASIZE SUB DUP2 ADD SWAP1 PUSH2 0x151 SWAP2 SWAP1 PUSH2 0x119F JUMP JUMPDEST PUSH2 0x721 JUMP JUMPDEST STOP JUMPDEST CALLVALUE DUP1 ISZERO PUSH2 0x163 JUMPI PUSH0 DUP1 REVERT JUMPDEST POP PUSH2 0x17E PUSH1 0x4 DUP1 CALLDATASIZE SUB DUP2 ADD SWAP1 PUSH2 0x179 SWAP2 SWAP1 PUSH2 0x131B JUMP JUMPDEST PUSH2 0x7F7 JUMP JUMPDEST STOP JUMPDEST CALLVALUE DUP1 ISZERO PUSH2 0x18B JUMPI PUSH0 DUP1 REVERT JUMPDEST POP PUSH2 0x1A6 PUSH1 0x4 DUP1 CALLDATASIZE SUB DUP2 ADD SWAP1 PUSH2 0x1A1 SWAP2 SWAP1 PUSH2 0x1161 JUMP JUMPDEST PUSH2 0xA32 JUMP JUMPDEST PUSH1 0x40 MLOAD PUSH2 0x1B3 SWAP2 SWAP1 PUSH2 0x13DC JUMP JUMPDEST PUSH1 0x40 MLOAD DUP1 SWAP2 SUB SWAP1 RETURN JUMPDEST CALLVALUE DUP1 ISZERO PUSH2 0x1C7 JUMPI PUSH0 DUP1 REVERT JUMPDEST POP PUSH2 0x1E2 PUSH1 0x4 DUP1 CALLDATASIZE SUB DUP2 ADD SWAP1 PUSH2 0x1DD SWAP2 SWAP1 PUSH2 0x1007 JUMP JUMPDEST PUSH2 0xA52 JUMP JUMPDEST PUSH1 0x40 MLOAD PUSH2 0x1EF SWAP2 SWAP1 PUSH2 0x13DC JUMP JUMPDEST PUSH1 0x40 MLOAD DUP1 SWAP2 SUB SWAP1 RETURN JUMPDEST CALLVALUE DUP1 ISZERO PUSH2 0x203 JUMPI PUSH0 DUP1 REVERT JUMPDEST POP PUSH2 0x21E PUSH1 0x4 DUP1 CALLDATASIZE SUB DUP2 ADD SWAP1 PUSH2 0x219 SWAP2 SWAP1 PUSH2 0x1007 JUMP JUMPDEST PUSH2 0xA6F JUMP JUMPDEST PUSH1 0x40 MLOAD PUSH2 0x231 SWAP8 SWAP7 SWAP6 SWAP5 SWAP4 SWAP3 SWAP2 SWAP1 PUSH2 0x10BC JUMP JUMPDEST PUSH1 0x40 MLOAD DUP1 SWAP2 SUB SWAP1 RETURN JUMPDEST CALLVALUE DUP1 ISZERO PUSH2 0x245 JUMPI PUSH0 DUP1 REVERT JUMPDEST POP PUSH2 0x260 PUSH1 0x4 DUP1 CALLDATASIZE SUB DUP2 ADD SWAP1 PUSH2 0x25B SWAP2 SWAP1 PUSH2 0x1161 JUMP JUMPDEST PUSH2 0xC24 JUMP JUMPDEST PUSH1 0x40 MLOAD PUSH2 0x26D SWAP2 SWAP1 PUSH2 0x13DC JUMP JUMPDEST PUSH1 0x40 MLOAD DUP1 SWAP2 SUB SWAP1 RETURN JUMPDEST CALLVALUE DUP1 ISZERO PUSH2 0x281 JUMPI PUSH0 DUP1 REVERT JUMPDEST POP PUSH2 0x29C PUSH1 0x4 DUP1 CALLDATASIZE SUB DUP2 ADD SWAP1 PUSH2 0x297 SWAP2 SWAP1 PUSH2 0x1161 JUMP JUMPDEST PUSH2 0xC7A JUMP JUMPDEST PUSH1 0x40 MLOAD PUSH2 0x2A9 SWAP2 SWAP1 PUSH2 0x13F5 JUMP JUMPDEST PUSH1 0x40 MLOAD DUP1 SWAP2 SUB SWAP1 RETURN JUMPDEST PUSH1 0x2 PUSH1 0x20 MSTORE DUP2 PUSH0 MSTORE PUSH1 0x40 PUSH0 KECCAK256 DUP2 DUP2 SLOAD DUP2 LT PUSH2 0x2CB JUMPI PUSH0 DUP1 REVERT JUMPDEST SWAP1 PUSH0 MSTORE PUSH1 0x20 PUSH0 KECCAK256 SWAP1 PUSH1 0x3 MUL ADD PUSH0 SWAP2 POP SWAP2 POP POP DUP1 PUSH0 ADD PUSH0 SWAP1 SLOAD SWAP1 PUSH2 0x100 EXP SWAP1 DIV PUSH20 0xFFFFFFFFFFFFFFFFFFFFFFFFFFFFFFFFFFFFFFFF AND SWAP1 DUP1 PUSH1 0x1 ADD SLOAD SWAP1 DUP1 PUSH1 0x2 ADD SLOAD SWAP1 POP DUP4 JUMP JUMPDEST PUSH0 PUSH1 0x20 MSTORE DUP1 PUSH0 MSTORE PUSH1 0x40 PUSH0 KECCAK256 PUSH0 SWAP2 POP SWAP1 POP DUP1 PUSH0 ADD PUSH0 SWAP1 SLOAD SWAP1 PUSH2 0x100 EXP SWAP1 DIV PUSH20 0xFFFFFFFFFFFFFFFFFFFFFFFFFFFFFFFFFFFFFFFF AND SWAP1 DUP1 PUSH1 0x1 ADD DUP1 SLOAD PUSH2 0x354 SWAP1 PUSH2 0x1442 JUMP JUMPDEST DUP1 PUSH1 0x1F ADD PUSH1 0x20 DUP1 SWAP2 DIV MUL PUSH1 0x20 ADD PUSH1 0x40 MLOAD SWAP1 DUP2 ADD PUSH1 0x40 MSTORE DUP1 SWAP3 SWAP2 SWAP1 DUP2 DUP2 MSTORE PUSH1 0x20 ADD DUP3 DUP1 SLOAD PUSH2 0x380 SWAP1 PUSH2 0x1442 JUMP JUMPDEST DUP1 ISZERO PUSH2 0x3CB JUMPI DUP1 PUSH1 0x1F LT PUSH2 0x3A2 JUMPI PUSH2 0x100 DUP1 DUP4 SLOAD DIV MUL DUP4 MSTORE SWAP2 PUSH1 0x20 ADD SWAP2 PUSH2 0x3CB JUMP JUMPDEST DUP3 ADD SWAP2 SWAP1 PUSH0 MSTORE PUSH1 0x20 PUSH0 KECCAK256 SWAP1 JUMPDEST DUP2 SLOAD DUP2 MSTORE SWAP1 PUSH1 0x1 ADD SWAP1 PUSH1 0x20 ADD DUP1 DUP4 GT PUSH2 0x3AE JUMPI DUP3 SWAP1 SUB PUSH1 0x1F AND DUP3 ADD SWAP2 JUMPDEST POP POP POP POP POP SWAP1 DUP1 PUSH1 0x2 ADD SLOAD SWAP1 DUP1 PUSH1 0x3 ADD SLOAD SWAP1 DUP1 PUSH1 0x4 ADD PUSH0 SWAP1 SLOAD SWAP1 PUSH2 0x100 EXP SWAP1 DIV PUSH1 0xFF AND SWAP1 DUP1 PUSH1 0x4 ADD PUSH1 0x1 SWAP1 SLOAD SWAP1 PUSH2 0x100 EXP SWAP1 DIV PUSH20 0xFFFFFFFFFFFFFFFFFFFFFFFFFFFFFFFFFFFFFFFF AND SWAP1 DUP1 PUSH1 0x5 ADD DUP1 SLOAD PUSH2 0x424 SWAP1 PUSH2 0x1442 JUMP JUMPDEST DUP1 PUSH1 0x1F ADD PUSH1 0x20 DUP1 SWAP2 DIV MUL PUSH1 0x20 ADD PUSH1 0x40 MLOAD SWAP1 DUP2 ADD PUSH1 0x40 MSTORE DUP1 SWAP3 SWAP2 SWAP1 DUP2 DUP2 MSTORE PUSH1 0x20 ADD DUP3 DUP1 SLOAD PUSH2 0x450 SWAP1 PUSH2 0x1442 JUMP JUMPDEST DUP1 ISZERO PUSH2 0x49B JUMPI DUP1 PUSH1 0x1F LT PUSH2 0x472 JUMPI PUSH2 0x100 DUP1 DUP4 SLOAD DIV MUL DUP4 MSTORE SWAP2 PUSH1 0x20 ADD SWAP2 PUSH2 0x49B JUMP JUMPDEST DUP3 ADD SWAP2 SWAP1 PUSH0 MSTORE PUSH1 0x20 PUSH0 KECCAK256 SWAP1 JUMPDEST DUP2 SLOAD DUP2 MSTORE SWAP1 PUSH1 0x1 ADD SWAP1 PUSH1 0x20 ADD DUP1 DUP4 GT PUSH2 0x47E JUMPI DUP3 SWAP1 SUB PUSH1 0x1F AND DUP3 ADD SWAP2 JUMPDEST POP POP POP POP POP SWAP1 POP DUP8 JUMP JUMPDEST DUP2 CALLER PUSH20 0xFFFFFFFFFFFFFFFFFFFFFFFFFFFFFFFFFFFFFFFF AND PUSH0 DUP1 DUP4 DUP2 MSTORE PUSH1 0x20 ADD SWAP1 DUP2 MSTORE PUSH1 0x20 ADD PUSH0 KECCAK256 PUSH0 ADD PUSH0 SWAP1 SLOAD SWAP1 PUSH2 0x100 EXP SWAP1 DIV PUSH20 0xFFFFFFFFFFFFFFFFFFFFFFFFFFFFFFFFFFFFFFFF AND PUSH20 0xFFFFFFFFFFFFFFFFFFFFFFFFFFFFFFFFFFFFFFFF AND EQ PUSH2 0x545 JUMPI PUSH1 0x40 MLOAD PUSH32 0x8C379A000000000000000000000000000000000000000000000000000000000 DUP2 MSTORE PUSH1 0x4 ADD PUSH2 0x53C SWAP1 PUSH2 0x14BC JUMP JUMPDEST PUSH1 0x40 MLOAD DUP1 SWAP2 SUB SWAP1 REVERT JUMPDEST PUSH0 DUP1 DUP5 DUP2 MSTORE PUSH1 0x20 ADD SWAP1 DUP2 MSTORE PUSH1 0x20 ADD PUSH0 KECCAK256 PUSH1 0x4 ADD PUSH0 SWAP1 SLOAD SWAP1 PUSH2 0x100 EXP SWAP1 DIV PUSH1 0xFF AND PUSH2 0x5A4 JUMPI PUSH1 0x40 MLOAD PUSH32 0x8C379A000000000000000000000000000000000000000000000000000000000 DUP2 MSTORE PUSH1 0x4 ADD PUSH2 0x59B SWAP1 PUSH2 0x1524 JUMP JUMPDEST PUSH1 0x40 MLOAD DUP1 SWAP2 SUB SWAP1 REVERT JUMPDEST PUSH0 CALLVALUE SWAP1 POP PUSH1 0x2 PUSH0 DUP6 DUP2 MSTORE PUSH1 0x20 ADD SWAP1 DUP2 MSTORE PUSH1 0x20 ADD PUSH0 KECCAK256 PUSH1 0x40 MLOAD DUP1 PUSH1 0x60 ADD PUSH1 0x40 MSTORE DUP1 DUP6 PUSH20 0xFFFFFFFFFFFFFFFFFFFFFFFFFFFFFFFFFFFFFFFF AND DUP2 MSTORE PUSH1 0x20 ADD DUP4 DUP2 MSTORE PUSH1 0x20 ADD TIMESTAMP DUP2 MSTORE POP SWAP1 DUP1 PUSH1 0x1 DUP2 SLOAD ADD DUP1 DUP3 SSTORE DUP1 SWAP2 POP POP PUSH1 0x1 SWAP1 SUB SWAP1 PUSH0 MSTORE PUSH1 0x20 PUSH0 KECCAK256 SWAP1 PUSH1 0x3 MUL ADD PUSH0 SWAP1 SWAP2 SWAP1 SWAP2 SWAP1 SWAP2 POP PUSH0 DUP3 ADD MLOAD DUP2 PUSH0 ADD PUSH0 PUSH2 0x100 EXP DUP2 SLOAD DUP2 PUSH20 0xFFFFFFFFFFFFFFFFFFFFFFFFFFFFFFFFFFFFFFFF MUL NOT AND SWAP1 DUP4 PUSH20 0xFFFFFFFFFFFFFFFFFFFFFFFFFFFFFFFFFFFFFFFF AND MUL OR SWAP1 SSTORE POP PUSH1 0x20 DUP3 ADD MLOAD DUP2 PUSH1 0x1 ADD SSTORE PUSH1 0x40 DUP3 ADD MLOAD DUP2 PUSH1 0x2 ADD SSTORE POP POP DUP1 PUSH1 0x1 PUSH0 DUP7 DUP2 MSTORE PUSH1 0x20 ADD SWAP1 DUP2 MSTORE PUSH1 0x20 ADD PUSH0 KECCAK256 PUSH0 DUP6 PUSH20 0xFFFFFFFFFFFFFFFFFFFFFFFFFFFFFFFFFFFFFFFF AND PUSH20 0xFFFFFFFFFFFFFFFFFFFFFFFFFFFFFFFFFFFFFFFF AND DUP2 MSTORE PUSH1 0x20 ADD SWAP1 DUP2 MSTORE PUSH1 0x20 ADD PUSH0 KECCAK256 PUSH0 DUP3 DUP3 SLOAD PUSH2 0x6C5 SWAP2 SWAP1 PUSH2 0x156F JUMP JUMPDEST SWAP3 POP POP DUP2 SWAP1 SSTORE POP DUP3 PUSH20 0xFFFFFFFFFFFFFFFFFFFFFFFFFFFFFFFFFFFFFFFF AND DUP5 PUSH32 0xFF041DA98CFD457D6429785969509880F0239FD88DFC124361B871FE189C687D DUP4 PUSH1 0x40 MLOAD PUSH2 0x713 SWAP2 SWAP1 PUSH2 0x13DC JUMP JUMPDEST PUSH1 0x40 MLOAD DUP1 SWAP2 SUB SWAP1 LOG3 POP POP POP POP JUMP JUMPDEST DUP3 CALLER PUSH20 0xFFFFFFFFFFFFFFFFFFFFFFFFFFFFFFFFFFFFFFFF AND PUSH0 DUP1 DUP4 DUP2 MSTORE PUSH1 0x20 ADD SWAP1 DUP2 MSTORE PUSH1 0x20 ADD PUSH0 KECCAK256 PUSH0 ADD PUSH0 SWAP1 SLOAD SWAP1 PUSH2 0x100 EXP SWAP1 DIV PUSH20 0xFFFFFFFFFFFFFFFFFFFFFFFFFFFFFFFFFFFFFFFF AND PUSH20 0xFFFFFFFFFFFFFFFFFFFFFFFFFFFFFFFFFFFFFFFF AND EQ PUSH2 0x7C1 JUMPI PUSH1 0x40 MLOAD PUSH32 0x8C379A000000000000000000000000000000000000000000000000000000000 DUP2 MSTORE PUSH1 0x4 ADD PUSH2 0x7B8 SWAP1 PUSH2 0x14BC JUMP JUMPDEST PUSH1 0x40 MLOAD DUP1 SWAP2 SUB SWAP1 REVERT JUMPDEST DUP3 PUSH0 DUP1 DUP7 DUP2 MSTORE PUSH1 0x20 ADD SWAP1 DUP2 MSTORE PUSH1 0x20 ADD PUSH0 KECCAK256 PUSH1 0x2 ADD DUP2 SWAP1 SSTORE POP DUP2 PUSH0 DUP1 DUP7 DUP2 MSTORE PUSH1 0x20 ADD SWAP1 DUP2 MSTORE PUSH1 0x20 ADD PUSH0 KECCAK256 PUSH1 0x3 ADD DUP2 SWAP1 SSTORE POP POP POP POP POP JUMP JUMPDEST PUSH0 DUP1 DUP8 DUP2 MSTORE PUSH1 0x20 ADD SWAP1 DUP2 MSTORE PUSH1 0x20 ADD PUSH0 KECCAK256 PUSH1 0x4 ADD PUSH0 SWAP1 SLOAD SWAP1 PUSH2 0x100 EXP SWAP1 DIV PUSH1 0xFF AND ISZERO PUSH2 0x857 JUMPI PUSH1 0x40 MLOAD PUSH32 0x8C379A000000000000000000000000000000000000000000000000000000000 DUP2 MSTORE PUSH1 0x4 ADD PUSH2 0x84E SWAP1 PUSH2 0x15EC JUMP JUMPDEST PUSH1 0x40 MLOAD DUP1 SWAP2 SUB SWAP1 REVERT JUMPDEST PUSH1 0x40 MLOAD DUP1 PUSH1 0xE0 ADD PUSH1 0x40 MSTORE DUP1 CALLER PUSH20 0xFFFFFFFFFFFFFFFFFFFFFFFFFFFFFFFFFFFFFFFF AND DUP2 MSTORE PUSH1 0x20 ADD DUP7 DUP2 MSTORE PUSH1 0x20 ADD DUP6 DUP2 MSTORE PUSH1 0x20 ADD DUP5 DUP2 MSTORE PUSH1 0x20 ADD PUSH1 0x1 ISZERO ISZERO DUP2 MSTORE PUSH1 0x20 ADD PUSH0 PUSH20 0xFFFFFFFFFFFFFFFFFFFFFFFFFFFFFFFFFFFFFFFF AND DUP5 PUSH20 0xFFFFFFFFFFFFFFFFFFFFFFFFFFFFFFFFFFFFFFFF AND EQ PUSH2 0x8D2 JUMPI DUP4 PUSH2 0x8D4 JUMP JUMPDEST CALLER JUMPDEST PUSH20 0xFFFFFFFFFFFFFFFFFFFFFFFFFFFFFFFFFFFFFFFF AND DUP2 MSTORE PUSH1 0x20 ADD DUP3 DUP2 MSTORE POP PUSH0 DUP1 DUP9 DUP2 MSTORE PUSH1 0x20 ADD SWAP1 DUP2 MSTORE PUSH1 0x20 ADD PUSH0 KECCAK256 PUSH0 DUP3 ADD MLOAD DUP2 PUSH0 ADD PUSH0 PUSH2 0x100 EXP DUP2 SLOAD DUP2 PUSH20 0xFFFFFFFFFFFFFFFFFFFFFFFFFFFFFFFFFFFFFFFF MUL NOT AND SWAP1 DUP4 PUSH20 0xFFFFFFFFFFFFFFFFFFFFFFFFFFFFFFFFFFFFFFFF AND MUL OR SWAP1 SSTORE POP PUSH1 0x20 DUP3 ADD MLOAD DUP2 PUSH1 0x1 ADD SWAP1 DUP2 PUSH2 0x95C SWAP2 SWAP1 PUSH2 0x17A7 JUMP JUMPDEST POP PUSH1 0x40 DUP3 ADD MLOAD DUP2 PUSH1 0x2 ADD SSTORE PUSH1 0x60 DUP3 ADD MLOAD DUP2 PUSH1 0x3 ADD SSTORE PUSH1 0x80 DUP3 ADD MLOAD DUP2 PUSH1 0x4 ADD PUSH0 PUSH2 0x100 EXP DUP2 SLOAD DUP2 PUSH1 0xFF MUL NOT AND SWAP1 DUP4 ISZERO ISZERO MUL OR SWAP1 SSTORE POP PUSH1 0xA0 DUP3 ADD MLOAD DUP2 PUSH1 0x4 ADD PUSH1 0x1 PUSH2 0x100 EXP DUP2 SLOAD DUP2 PUSH20 0xFFFFFFFFFFFFFFFFFFFFFFFFFFFFFFFFFFFFFFFF MUL NOT AND SWAP1 DUP4 PUSH20 0xFFFFFFFFFFFFFFFFFFFFFFFFFFFFFFFFFFFFFFFF AND MUL OR SWAP1 SSTORE POP PUSH1 0xC0 DUP3 ADD MLOAD DUP2 PUSH1 0x5 ADD SWAP1 DUP2 PUSH2 0x9EC SWAP2 SWAP1 PUSH2 0x17A7 JUMP JUMPDEST POP SWAP1 POP POP DUP6 PUSH32 0xFE880EE1DC1393B79A9F14D9792D75F52D7A494B356207FAA6716B750B2F92AA DUP7 CALLER PUSH1 0x40 MLOAD PUSH2 0xA22 SWAP3 SWAP2 SWAP1 PUSH2 0x1876 JUMP JUMPDEST PUSH1 0x40 MLOAD DUP1 SWAP2 SUB SWAP1 LOG2 POP POP POP POP POP POP JUMP JUMPDEST PUSH1 0x1 PUSH1 0x20 MSTORE DUP2 PUSH0 MSTORE PUSH1 0x40 PUSH0 KECCAK256 PUSH1 0x20 MSTORE DUP1 PUSH0 MSTORE PUSH1 0x40 PUSH0 KECCAK256 PUSH0 SWAP2 POP SWAP2 POP POP SLOAD DUP2 JUMP JUMPDEST PUSH0 PUSH1 0x2 PUSH0 DUP4 DUP2 MSTORE PUSH1 0x20 ADD SWAP1 DUP2 MSTORE PUSH1 0x20 ADD PUSH0 KECCAK256 DUP1 SLOAD SWAP1 POP SWAP1 POP SWAP2 SWAP1 POP JUMP JUMPDEST PUSH0 PUSH1 0x60 PUSH0 DUP1 PUSH0 DUP1 PUSH1 0x60 PUSH0 DUP1 PUSH0 DUP11 DUP2 MSTORE PUSH1 0x20 ADD SWAP1 DUP2 MSTORE PUSH1 0x20 ADD PUSH0 KECCAK256 SWAP1 POP DUP1 PUSH0 ADD PUSH0 SWAP1 SLOAD SWAP1 PUSH2 0x100 EXP SWAP1 DIV PUSH20 0xFFFFFFFFFFFFFFFFFFFFFFFFFFFFFFFFFFFFFFFF AND DUP2 PUSH1 0x1 ADD DUP3 PUSH1 0x2 ADD SLOAD DUP4 PUSH1 0x3 ADD SLOAD DUP5 PUSH1 0x4 ADD PUSH0 SWAP1 SLOAD SWAP1 PUSH2 0x100 EXP SWAP1 DIV PUSH1 0xFF AND DUP6 PUSH1 0x4 ADD PUSH1 0x1 SWAP1 SLOAD SWAP1 PUSH2 0x100 EXP SWAP1 DIV PUSH20 0xFFFFFFFFFFFFFFFFFFFFFFFFFFFFFFFFFFFFFFFF AND DUP7 PUSH1 0x5 ADD DUP6 DUP1 SLOAD PUSH2 0xB02 SWAP1 PUSH2 0x1442 JUMP JUMPDEST DUP1 PUSH1 0x1F ADD PUSH1 0x20 DUP1 SWAP2 DIV MUL PUSH1 0x20 ADD PUSH1 0x40 MLOAD SWAP1 DUP2 ADD PUSH1 0x40 MSTORE DUP1 SWAP3 SWAP2 SWAP1 DUP2 DUP2 MSTORE PUSH1 0x20 ADD DUP3 DUP1 SLOAD PUSH2 0xB2E SWAP1 PUSH2 0x1442 JUMP JUMPDEST DUP1 ISZERO PUSH2 0xB79 JUMPI DUP1 PUSH1 0x1F LT PUSH2 0xB50 JUMPI PUSH2 0x100 DUP1 DUP4 SLOAD DIV MUL DUP4 MSTORE SWAP2 PUSH1 0x20 ADD SWAP2 PUSH2 0xB79 JUMP JUMPDEST DUP3 ADD SWAP2 SWAP1 PUSH0 MSTORE PUSH1 0x20 PUSH0 KECCAK256 SWAP1 JUMPDEST DUP2 SLOAD DUP2 MSTORE SWAP1 PUSH1 0x1 ADD SWAP1 PUSH1 0x20 ADD DUP1 DUP4 GT PUSH2 0xB5C JUMPI DUP3 SWAP1 SUB PUSH1 0x1F AND DUP3 ADD SWAP2 JUMPDEST POP POP POP POP POP SWAP6 POP DUP1 DUP1 SLOAD PUSH2 0xB8C SWAP1 PUSH2 0x1442 JUMP JUMPDEST DUP1 PUSH1 0x1F ADD PUSH1 0x20 DUP1 SWAP2 DIV MUL PUSH1 0x20 ADD PUSH1 0x40 MLOAD SWAP1 DUP2 ADD PUSH1 0x40 MSTORE DUP1 SWAP3 SWAP2 SWAP1 DUP2 DUP2 MSTORE PUSH1 0x20 ADD DUP3 DUP1 SLOAD PUSH2 0xBB8 SWAP1 PUSH2 0x1442 JUMP JUMPDEST DUP1 ISZERO PUSH2 0xC03 JUMPI DUP1 PUSH1 0x1F LT PUSH2 0xBDA JUMPI PUSH2 0x100 DUP1 DUP4 SLOAD DIV MUL DUP4 MSTORE SWAP2 PUSH1 0x20 ADD SWAP2 PUSH2 0xC03 JUMP JUMPDEST DUP3 ADD SWAP2 SWAP1 PUSH0 MSTORE PUSH1 0x20 PUSH0 KECCAK256 SWAP1 JUMPDEST DUP2 SLOAD DUP2 MSTORE SWAP1 PUSH1 0x1 ADD SWAP1 PUSH1 0x20 ADD DUP1 DUP4 GT PUSH2 0xBE6 JUMPI DUP3 SWAP1 SUB PUSH1 0x1F AND DUP3 ADD SWAP2 JUMPDEST POP POP POP POP POP SWAP1 POP SWAP8 POP SWAP8 POP SWAP8 POP SWAP8 POP SWAP8 POP SWAP8 POP SWAP8 POP POP SWAP2 SWAP4 SWAP6 SWAP8 SWAP1 SWAP3 SWAP5 SWAP7 POP JUMP JUMPDEST PUSH0 PUSH1 0x1 PUSH0 DUP5 DUP2 MSTORE PUSH1 0x20 ADD SWAP1 DUP2 MSTORE PUSH1 0x20 ADD PUSH0 KECCAK256 PUSH0 DUP4 PUSH20 0xFFFFFFFFFFFFFFFFFFFFFFFFFFFFFFFFFFFFFFFF AND PUSH20 0xFFFFFFFFFFFFFFFFFFFFFFFFFFFFFFFFFFFFFFFF AND DUP2 MSTORE PUSH1 0x20 ADD SWAP1 DUP2 MSTORE PUSH1 0x20 ADD PUSH0 KECCAK256 SLOAD SWAP1 POP SWAP3 SWAP2 POP POP JUMP JUMPDEST PUSH1 0x60 DUP3 CALLER PUSH20 0xFFFFFFFFFFFFFFFFFFFFFFFFFFFFFFFFFFFFFFFF AND PUSH0 DUP1 DUP4 DUP2 MSTORE PUSH1 0x20 ADD SWAP1 DUP2 MSTORE PUSH1 0x20 ADD PUSH0 KECCAK256 PUSH0 ADD PUSH0 SWAP1 SLOAD SWAP1 PUSH2 0x100 EXP SWAP1 DIV PUSH20 0xFFFFFFFFFFFFFFFFFFFFFFFFFFFFFFFFFFFFFFFF AND PUSH20 0xFFFFFFFFFFFFFFFFFFFFFFFFFFFFFFFFFFFFFFFF AND EQ PUSH2 0xD1C JUMPI PUSH1 0x40 MLOAD PUSH32 0x8C379A000000000000000000000000000000000000000000000000000000000 DUP2 MSTORE PUSH1 0x4 ADD PUSH2 0xD13 SWAP1 PUSH2 0x14BC JUMP JUMPDEST PUSH1 0x40 MLOAD DUP1 SWAP2 SUB SWAP1 REVERT JUMPDEST PUSH2 0xD26 DUP5 DUP5 PUSH2 0xD2F JUMP JUMPDEST SWAP2 POP POP SWAP3 SWAP2 POP POP JUMP JUMPDEST PUSH1 0x60 PUSH0 DUP1 PUSH0 DUP6 DUP2 MSTORE PUSH1 0x20 ADD SWAP1 DUP2 MSTORE PUSH1 0x20 ADD PUSH0 KECCAK256 SWAP1 POP DUP1 PUSH1 0x2 ADD SLOAD PUSH1 0x1 PUSH0 DUP7 DUP2 MSTORE PUSH1 0x20 ADD SWAP1 DUP2 MSTORE PUSH1 0x20 ADD PUSH0 KECCAK256 PUSH0 DUP6 PUSH20 0xFFFFFFFFFFFFFFFFFFFFFFFFFFFFFFFFFFFFFFFF AND PUSH20 0xFFFFFFFFFFFFFFFFFFFFFFFFFFFFFFFFFFFFFFFF AND DUP2 MSTORE PUSH1 0x20 ADD SWAP1 DUP2 MSTORE PUSH1 0x20 ADD PUSH0 KECCAK256 SLOAD LT ISZERO PUSH2 0xDD7 JUMPI PUSH1 0x40 MLOAD PUSH32 0x8C379A000000000000000000000000000000000000000000000000000000000 DUP2 MSTORE PUSH1 0x4 ADD PUSH2 0xDCE SWAP1 PUSH2 0x18EE JUMP JUMPDEST PUSH1 0x40 MLOAD DUP1 SWAP2 SUB SWAP1 REVERT JUMPDEST DUP1 PUSH1 0x2 ADD SLOAD PUSH1 0x1 PUSH0 DUP7 DUP2 MSTORE PUSH1 0x20 ADD SWAP1 DUP2 MSTORE PUSH1 0x20 ADD PUSH0 KECCAK256 PUSH0 DUP6 PUSH20 0xFFFFFFFFFFFFFFFFFFFFFFFFFFFFFFFFFFFFFFFF AND PUSH20 0xFFFFFFFFFFFFFFFFFFFFFFFFFFFFFFFFFFFFFFFF AND DUP2 MSTORE PUSH1 0x20 ADD SWAP1 DUP2 MSTORE PUSH1 0x20 ADD PUSH0 KECCAK256 PUSH0 DUP3 DUP3 SLOAD PUSH2 0xE36 SWAP2 SWAP1 PUSH2 0x190C JUMP JUMPDEST SWAP3 POP POP DUP2 SWAP1 SSTORE POP DUP3 PUSH20 0xFFFFFFFFFFFFFFFFFFFFFFFFFFFFFFFFFFFFFFFF AND DUP5 PUSH32 0xFE236DFC7CE073698734B89DA1AEE0E7551C9C6D264404C502E6E8FEFC1132A8 DUP4 PUSH1 0x3 ADD SLOAD PUSH1 0x40 MLOAD PUSH2 0xE88 SWAP2 SWAP1 PUSH2 0x13DC JUMP JUMPDEST PUSH1 0x40 MLOAD DUP1 SWAP2 SUB SWAP1 LOG3 PUSH1 0x40 MLOAD DUP1 PUSH1 0x40 ADD PUSH1 0x40 MSTORE DUP1 PUSH1 0xE DUP2 MSTORE PUSH1 0x20 ADD PUSH32 0x52657761726420636C61696D6564000000000000000000000000000000000000 DUP2 MSTORE POP SWAP2 POP POP SWAP3 SWAP2 POP POP JUMP JUMPDEST PUSH0 PUSH1 0x40 MLOAD SWAP1 POP SWAP1 JUMP JUMPDEST PUSH0 DUP1 REVERT JUMPDEST PUSH0 DUP1 REVERT JUMPDEST PUSH0 DUP2 SWAP1 POP SWAP2 SWAP1 POP JUMP JUMPDEST PUSH2 0xEF2 DUP2 PUSH2 0xEE0 JUMP JUMPDEST DUP2 EQ PUSH2 0xEFC JUMPI PUSH0 DUP1 REVERT JUMPDEST POP JUMP JUMPDEST PUSH0 DUP2 CALLDATALOAD SWAP1 POP PUSH2 0xF0D DUP2 PUSH2 0xEE9 JUMP JUMPDEST SWAP3 SWAP2 POP POP JUMP JUMPDEST PUSH0 DUP2 SWAP1 POP SWAP2 SWAP1 POP JUMP JUMPDEST PUSH2 0xF25 DUP2 PUSH2 0xF13 JUMP JUMPDEST DUP2 EQ PUSH2 0xF2F JUMPI PUSH0 DUP1 REVERT JUMPDEST POP JUMP JUMPDEST PUSH0 DUP2 CALLDATALOAD SWAP1 POP PUSH2 0xF40 DUP2 PUSH2 0xF1C JUMP JUMPDEST SWAP3 SWAP2 POP POP JUMP JUMPDEST PUSH0 DUP1 PUSH1 0x40 DUP4 DUP6 SUB SLT ISZERO PUSH2 0xF5C JUMPI PUSH2 0xF5B PUSH2 0xED8 JUMP JUMPDEST JUMPDEST PUSH0 PUSH2 0xF69 DUP6 DUP3 DUP7 ADD PUSH2 0xEFF JUMP JUMPDEST SWAP3 POP POP PUSH1 0x20 PUSH2 0xF7A DUP6 DUP3 DUP7 ADD PUSH2 0xF32 JUMP JUMPDEST SWAP2 POP POP SWAP3 POP SWAP3 SWAP1 POP JUMP JUMPDEST PUSH0 PUSH20 0xFFFFFFFFFFFFFFFFFFFFFFFFFFFFFFFFFFFFFFFF DUP3 AND SWAP1 POP SWAP2 SWAP1 POP JUMP JUMPDEST PUSH0 PUSH2 0xFAD DUP3 PUSH2 0xF84 JUMP JUMPDEST SWAP1 POP SWAP2 SWAP1 POP JUMP JUMPDEST PUSH2 0xFBD DUP2 PUSH2 0xFA3 JUMP JUMPDEST DUP3 MSTORE POP POP JUMP JUMPDEST PUSH2 0xFCC DUP2 PUSH2 0xF13 JUMP JUMPDEST DUP3 MSTORE POP POP JUMP JUMPDEST PUSH0 PUSH1 0x60 DUP3 ADD SWAP1 POP PUSH2 0xFE5 PUSH0 DUP4 ADD DUP7 PUSH2 0xFB4 JUMP JUMPDEST PUSH2 0xFF2 PUSH1 0x20 DUP4 ADD DUP6 PUSH2 0xFC3 JUMP JUMPDEST PUSH2 0xFFF PUSH1 0x40 DUP4 ADD DUP5 PUSH2 0xFC3 JUMP JUMPDEST SWAP5 SWAP4 POP POP POP POP JUMP JUMPDEST PUSH0 PUSH1 0x20 DUP3 DUP5 SUB SLT ISZERO PUSH2 0x101C JUMPI PUSH2 0x101B PUSH2 0xED8 JUMP JUMPDEST JUMPDEST PUSH0 PUSH2 0x1029 DUP5 DUP3 DUP6 ADD PUSH2 0xEFF JUMP JUMPDEST SWAP2 POP POP SWAP3 SWAP2 POP POP JUMP JUMPDEST PUSH0 DUP2 MLOAD SWAP1 POP SWAP2 SWAP1 POP JUMP JUMPDEST PUSH0 DUP3 DUP3 MSTORE PUSH1 0x20 DUP3 ADD SWAP1 POP SWAP3 SWAP2 POP POP JUMP JUMPDEST DUP3 DUP2 DUP4 MCOPY PUSH0 DUP4 DUP4 ADD MSTORE POP POP POP JUMP JUMPDEST PUSH0 PUSH1 0x1F NOT PUSH1 0x1F DUP4 ADD AND SWAP1 POP SWAP2 SWAP1 POP JUMP JUMPDEST PUSH0 PUSH2 0x1074 DUP3 PUSH2 0x1032 JUMP JUMPDEST PUSH2 0x107E DUP2 DUP6 PUSH2 0x103C JUMP JUMPDEST SWAP4 POP PUSH2 0x108E DUP2 DUP6 PUSH1 0x20 DUP7 ADD PUSH2 0x104C JUMP JUMPDEST PUSH2 0x1097 DUP2 PUSH2 0x105A JUMP JUMPDEST DUP5 ADD SWAP2 POP POP SWAP3 SWAP2 POP POP JUMP JUMPDEST PUSH0 DUP2 ISZERO ISZERO SWAP1 POP SWAP2 SWAP1 POP JUMP JUMPDEST PUSH2 0x10B6 DUP2 PUSH2 0x10A2 JUMP JUMPDEST DUP3 MSTORE POP POP JUMP JUMPDEST PUSH0 PUSH1 0xE0 DUP3 ADD SWAP1 POP PUSH2 0x10CF PUSH0 DUP4 ADD DUP11 PUSH2 0xFB4 JUMP JUMPDEST DUP2 DUP2 SUB PUSH1 0x20 DUP4 ADD MSTORE PUSH2 0x10E1 DUP2 DUP10 PUSH2 0x106A JUMP JUMPDEST SWAP1 POP PUSH2 0x10F0 PUSH1 0x40 DUP4 ADD DUP9 PUSH2 0xFC3 JUMP JUMPDEST PUSH2 0x10FD PUSH1 0x60 DUP4 ADD DUP8 PUSH2 0xFC3 JUMP JUMPDEST PUSH2 0x110A PUSH1 0x80 DUP4 ADD DUP7 PUSH2 0x10AD JUMP JUMPDEST PUSH2 0x1117 PUSH1 0xA0 DUP4 ADD DUP6 PUSH2 0xFB4 JUMP JUMPDEST DUP2 DUP2 SUB PUSH1 0xC0 DUP4 ADD MSTORE PUSH2 0x1129 DUP2 DUP5 PUSH2 0x106A JUMP JUMPDEST SWAP1 POP SWAP9 SWAP8 POP POP POP POP POP POP POP POP JUMP JUMPDEST PUSH2 0x1140 DUP2 PUSH2 0xFA3 JUMP JUMPDEST DUP2 EQ PUSH2 0x114A JUMPI PUSH0 DUP1 REVERT JUMPDEST POP JUMP JUMPDEST PUSH0 DUP2 CALLDATALOAD SWAP1 POP PUSH2 0x115B DUP2 PUSH2 0x1137 JUMP JUMPDEST SWAP3 SWAP2 POP POP JUMP JUMPDEST PUSH0 DUP1 PUSH1 0x40 DUP4 DUP6 SUB SLT ISZERO PUSH2 0x1177 JUMPI PUSH2 0x1176 PUSH2 0xED8 JUMP JUMPDEST JUMPDEST PUSH0 PUSH2 0x1184 DUP6 DUP3 DUP7 ADD PUSH2 0xEFF JUMP JUMPDEST SWAP3 POP POP PUSH1 0x20 PUSH2 0x1195 DUP6 DUP3 DUP7 ADD PUSH2 0x114D JUMP JUMPDEST SWAP2 POP POP SWAP3 POP SWAP3 SWAP1 POP JUMP JUMPDEST PUSH0 DUP1 PUSH0 PUSH1 0x60 DUP5 DUP7 SUB SLT ISZERO PUSH2 0x11B6 JUMPI PUSH2 0x11B5 PUSH2 0xED8 JUMP JUMPDEST JUMPDEST PUSH0 PUSH2 0x11C3 DUP7 DUP3 DUP8 ADD PUSH2 0xEFF JUMP JUMPDEST SWAP4 POP POP PUSH1 0x20 PUSH2 0x11D4 DUP7 DUP3 DUP8 ADD PUSH2 0xF32 JUMP JUMPDEST SWAP3 POP POP PUSH1 0x40 PUSH2 0x11E5 DUP7 DUP3 DUP8 ADD PUSH2 0xF32 JUMP JUMPDEST SWAP2 POP POP SWAP3 POP SWAP3 POP SWAP3 JUMP JUMPDEST PUSH0 DUP1 REVERT JUMPDEST PUSH0 DUP1 REVERT JUMPDEST PUSH32 0x4E487B7100000000000000000000000000000000000000000000000000000000 PUSH0 MSTORE PUSH1 0x41 PUSH1 0x4 MSTORE PUSH1 0x24 PUSH0 REVERT JUMPDEST PUSH2 0x122D DUP3 PUSH2 0x105A JUMP JUMPDEST DUP2 ADD DUP2 DUP2 LT PUSH8 0xFFFFFFFFFFFFFFFF DUP3 GT OR ISZERO PUSH2 0x124C JUMPI PUSH2 0x124B PUSH2 0x11F7 JUMP JUMPDEST JUMPDEST DUP1 PUSH1 0x40 MSTORE POP POP POP JUMP JUMPDEST PUSH0 PUSH2 0x125E PUSH2 0xECF JUMP JUMPDEST SWAP1 POP PUSH2 0x126A DUP3 DUP3 PUSH2 0x1224 JUMP JUMPDEST SWAP2 SWAP1 POP JUMP JUMPDEST PUSH0 PUSH8 0xFFFFFFFFFFFFFFFF DUP3 GT ISZERO PUSH2 0x1289 JUMPI PUSH2 0x1288 PUSH2 0x11F7 JUMP JUMPDEST JUMPDEST PUSH2 0x1292 DUP3 PUSH2 0x105A JUMP JUMPDEST SWAP1 POP PUSH1 0x20 DUP2 ADD SWAP1 POP SWAP2 SWAP1 POP JUMP JUMPDEST DUP3 DUP2 DUP4 CALLDATACOPY PUSH0 DUP4 DUP4 ADD MSTORE POP POP POP JUMP JUMPDEST PUSH0 PUSH2 0x12BF PUSH2 0x12BA DUP5 PUSH2 0x126F JUMP JUMPDEST PUSH2 0x1255 JUMP JUMPDEST SWAP1 POP DUP3 DUP2 MSTORE PUSH1 0x20 DUP2 ADD DUP5 DUP5 DUP5 ADD GT ISZERO PUSH2 0x12DB JUMPI PUSH2 0x12DA PUSH2 0x11F3 JUMP JUMPDEST JUMPDEST PUSH2 0x12E6 DUP5 DUP3 DUP6 PUSH2 0x129F JUMP JUMPDEST POP SWAP4 SWAP3 POP POP POP JUMP JUMPDEST PUSH0 DUP3 PUSH1 0x1F DUP4 ADD SLT PUSH2 0x1302 JUMPI PUSH2 0x1301 PUSH2 0x11EF JUMP JUMPDEST JUMPDEST DUP2 CALLDATALOAD PUSH2 0x1312 DUP5 DUP3 PUSH1 0x20 DUP7 ADD PUSH2 0x12AD JUMP JUMPDEST SWAP2 POP POP SWAP3 SWAP2 POP POP JUMP JUMPDEST PUSH0 DUP1 PUSH0 DUP1 PUSH0 DUP1 PUSH1 0xC0 DUP8 DUP10 SUB SLT ISZERO PUSH2 0x1335 JUMPI PUSH2 0x1334 PUSH2 0xED8 JUMP JUMPDEST JUMPDEST PUSH0 PUSH2 0x1342 DUP10 DUP3 DUP11 ADD PUSH2 0xEFF JUMP JUMPDEST SWAP7 POP POP PUSH1 0x20 DUP8 ADD CALLDATALOAD PUSH8 0xFFFFFFFFFFFFFFFF DUP2 GT ISZERO PUSH2 0x1363 JUMPI PUSH2 0x1362 PUSH2 0xEDC JUMP JUMPDEST JUMPDEST PUSH2 0x136F DUP10 DUP3 DUP11 ADD PUSH2 0x12EE JUMP JUMPDEST SWAP6 POP POP PUSH1 0x40 PUSH2 0x1380 DUP10 DUP3 DUP11 ADD PUSH2 0xF32 JUMP JUMPDEST SWAP5 POP POP PUSH1 0x60 PUSH2 0x1391 DUP10 DUP3 DUP11 ADD PUSH2 0xF32 JUMP JUMPDEST SWAP4 POP POP PUSH1 0x80 PUSH2 0x13A2 DUP10 DUP3 DUP11 ADD PUSH2 0x114D JUMP JUMPDEST SWAP3 POP POP PUSH1 0xA0 DUP8 ADD CALLDATALOAD PUSH8 0xFFFFFFFFFFFFFFFF DUP2 GT ISZERO PUSH2 0x13C3 JUMPI PUSH2 0x13C2 PUSH2 0xEDC JUMP JUMPDEST JUMPDEST PUSH2 0x13CF DUP10 DUP3 DUP11 ADD PUSH2 0x12EE JUMP JUMPDEST SWAP2 POP POP SWAP3 SWAP6 POP SWAP3 SWAP6 POP SWAP3 SWAP6 JUMP JUMPDEST PUSH0 PUSH1 0x20 DUP3 ADD SWAP1 POP PUSH2 0x13EF PUSH0 DUP4 ADD DUP5 PUSH2 0xFC3 JUMP JUMPDEST SWAP3 SWAP2 POP POP JUMP JUMPDEST PUSH0 PUSH1 0x20 DUP3 ADD SWAP1 POP DUP2 DUP2 SUB PUSH0 DUP4 ADD MSTORE PUSH2 0x140D DUP2 DUP5 PUSH2 0x106A JUMP JUMPDEST SWAP1 POP SWAP3 SWAP2 POP POP JUMP JUMPDEST PUSH32 0x4E487B7100000000000000000000000000000000000000000000000000000000 PUSH0 MSTORE PUSH1 0x22 PUSH1 0x4 MSTORE PUSH1 0x24 PUSH0 REVERT JUMPDEST PUSH0 PUSH1 0x2 DUP3 DIV SWAP1 POP PUSH1 0x1 DUP3 AND DUP1 PUSH2 0x1459 JUMPI PUSH1 0x7F DUP3 AND SWAP2 POP JUMPDEST PUSH1 0x20 DUP3 LT DUP2 SUB PUSH2 0x146C JUMPI PUSH2 0x146B PUSH2 0x1415 JUMP JUMPDEST JUMPDEST POP SWAP2 SWAP1 POP JUMP JUMPDEST PUSH32 0x4E6F7420627573696E657373206F776E65720000000000000000000000000000 PUSH0 DUP3 ADD MSTORE POP JUMP JUMPDEST PUSH0 PUSH2 0x14A6 PUSH1 0x12 DUP4 PUSH2 0x103C JUMP JUMPDEST SWAP2 POP PUSH2 0x14B1 DUP3 PUSH2 0x1472 JUMP JUMPDEST PUSH1 0x20 DUP3 ADD SWAP1 POP SWAP2 SWAP1 POP JUMP JUMPDEST PUSH0 PUSH1 0x20 DUP3 ADD SWAP1 POP DUP2 DUP2 SUB PUSH0 DUP4 ADD MSTORE PUSH2 0x14D3 DUP2 PUSH2 0x149A JUMP JUMPDEST SWAP1 POP SWAP2 SWAP1 POP JUMP JUMPDEST PUSH32 0x427573696E657373206E6F742061637469766500000000000000000000000000 PUSH0 DUP3 ADD MSTORE POP JUMP JUMPDEST PUSH0 PUSH2 0x150E PUSH1 0x13 DUP4 PUSH2 0x103C JUMP JUMPDEST SWAP2 POP PUSH2 0x1519 DUP3 PUSH2 0x14DA JUMP JUMPDEST PUSH1 0x20 DUP3 ADD SWAP1 POP SWAP2 SWAP1 POP JUMP JUMPDEST PUSH0 PUSH1 0x20 DUP3 ADD SWAP1 POP DUP2 DUP2 SUB PUSH0 DUP4 ADD MSTORE PUSH2 0x153B DUP2 PUSH2 0x1502 JUMP JUMPDEST SWAP1 POP SWAP2 SWAP1 POP JUMP JUMPDEST PUSH32 0x4E487B7100000000000000000000000000000000000000000000000000000000 PUSH0 MSTORE PUSH1 0x11 PUSH1 0x4 MSTORE PUSH1 0x24 PUSH0 REVERT JUMPDEST PUSH0 PUSH2 0x1579 DUP3 PUSH2 0xF13 JUMP JUMPDEST SWAP2 POP PUSH2 0x1584 DUP4 PUSH2 0xF13 JUMP JUMPDEST SWAP3 POP DUP3 DUP3 ADD SWAP1 POP DUP1 DUP3 GT ISZERO PUSH2 0x159C JUMPI PUSH2 0x159B PUSH2 0x1542 JUMP JUMPDEST JUMPDEST SWAP3 SWAP2 POP POP JUMP JUMPDEST PUSH32 0x427573696E65737320616C726561647920726567697374657265640000000000 PUSH0 DUP3 ADD MSTORE POP JUMP JUMPDEST PUSH0 PUSH2 0x15D6 PUSH1 0x1B DUP4 PUSH2 0x103C JUMP JUMPDEST SWAP2 POP PUSH2 0x15E1 DUP3 PUSH2 0x15A2 JUMP JUMPDEST PUSH1 0x20 DUP3 ADD SWAP1 POP SWAP2 SWAP1 POP JUMP JUMPDEST PUSH0 PUSH1 0x20 DUP3 ADD SWAP1 POP DUP2 DUP2 SUB PUSH0 DUP4 ADD MSTORE PUSH2 0x1603 DUP2 PUSH2 0x15CA JUMP JUMPDEST SWAP1 POP SWAP2 SWAP1 POP JUMP JUMPDEST PUSH0 DUP2 SWAP1 POP DUP2 PUSH0 MSTORE PUSH1 0x20 PUSH0 KECCAK256 SWAP1 POP SWAP2 SWAP1 POP JUMP JUMPDEST PUSH0 PUSH1 0x20 PUSH1 0x1F DUP4 ADD DIV SWAP1 POP SWAP2 SWAP1 POP JUMP JUMPDEST PUSH0 DUP3 DUP3 SHL SWAP1 POP SWAP3 SWAP2 POP POP JUMP JUMPDEST PUSH0 PUSH1 0x8 DUP4 MUL PUSH2 0x1666 PUSH32 0xFFFFFFFFFFFFFFFFFFFFFFFFFFFFFFFFFFFFFFFFFFFFFFFFFFFFFFFFFFFFFFFF DUP3 PUSH2 0x162B JUMP JUMPDEST PUSH2 0x1670 DUP7 DUP4 PUSH2 0x162B JUMP JUMPDEST SWAP6 POP DUP1 NOT DUP5 AND SWAP4 POP DUP1 DUP7 AND DUP5 OR SWAP3 POP POP POP SWAP4 SWAP3 POP POP POP JUMP JUMPDEST PUSH0 DUP2 SWAP1 POP SWAP2 SWAP1 POP JUMP JUMPDEST PUSH0 PUSH2 0x16AB PUSH2 0x16A6 PUSH2 0x16A1 DUP5 PUSH2 0xF13 JUMP JUMPDEST PUSH2 0x1688 JUMP JUMPDEST PUSH2 0xF13 JUMP JUMPDEST SWAP1 POP SWAP2 SWAP1 POP JUMP JUMPDEST PUSH0 DUP2 SWAP1 POP SWAP2 SWAP1 POP JUMP JUMPDEST PUSH2 0x16C4 DUP4 PUSH2 0x1691 JUMP JUMPDEST PUSH2 0x16D8 PUSH2 0x16D0 DUP3 PUSH2 0x16B2 JUMP JUMPDEST DUP5 DUP5 SLOAD PUSH2 0x1637 JUMP JUMPDEST DUP3 SSTORE POP POP POP POP JUMP JUMPDEST PUSH0 SWAP1 JUMP JUMPDEST PUSH2 0x16EC PUSH2 0x16E0 JUMP JUMPDEST PUSH2 0x16F7 DUP2 DUP5 DUP5 PUSH2 0x16BB JUMP JUMPDEST POP POP POP JUMP JUMPDEST JUMPDEST DUP2 DUP2 LT ISZERO PUSH2 0x171A JUMPI PUSH2 0x170F PUSH0 DUP3 PUSH2 0x16E4 JUMP JUMPDEST PUSH1 0x1 DUP2 ADD SWAP1 POP PUSH2 0x16FD JUMP JUMPDEST POP POP JUMP JUMPDEST PUSH1 0x1F DUP3 GT ISZERO PUSH2 0x175F JUMPI PUSH2 0x1730 DUP2 PUSH2 0x160A JUMP JUMPDEST PUSH2 0x1739 DUP5 PUSH2 0x161C JUMP JUMPDEST DUP2 ADD PUSH1 0x20 DUP6 LT ISZERO PUSH2 0x1748 JUMPI DUP2 SWAP1 POP JUMPDEST PUSH2 0x175C PUSH2 0x1754 DUP6 PUSH2 0x161C JUMP JUMPDEST DUP4 ADD DUP3 PUSH2 0x16FC JUMP JUMPDEST POP POP JUMPDEST POP POP POP JUMP JUMPDEST PUSH0 DUP3 DUP3 SHR SWAP1 POP SWAP3 SWAP2 POP POP JUMP JUMPDEST PUSH0 PUSH2 0x177F PUSH0 NOT DUP5 PUSH1 0x8 MUL PUSH2 0x1764 JUMP JUMPDEST NOT DUP1 DUP4 AND SWAP2 POP POP SWAP3 SWAP2 POP POP JUMP JUMPDEST PUSH0 PUSH2 0x1797 DUP4 DUP4 PUSH2 0x1770 JUMP JUMPDEST SWAP2 POP DUP3 PUSH1 0x2 MUL DUP3 OR SWAP1 POP SWAP3 SWAP2 POP POP JUMP JUMPDEST PUSH2 0x17B0 DUP3 PUSH2 0x1032 JUMP JUMPDEST PUSH8 0xFFFFFFFFFFFFFFFF DUP2 GT ISZERO PUSH2 0x17C9 JUMPI PUSH2 0x17C8 PUSH2 0x11F7 JUMP JUMPDEST JUMPDEST PUSH2 0x17D3 DUP3 SLOAD PUSH2 0x1442 JUMP JUMPDEST PUSH2 0x17DE DUP3 DUP3 DUP6 PUSH2 0x171E JUMP JUMPDEST PUSH0 PUSH1 0x20 SWAP1 POP PUSH1 0x1F DUP4 GT PUSH1 0x1 DUP2 EQ PUSH2 0x180F JUMPI PUSH0 DUP5 ISZERO PUSH2 0x17FD JUMPI DUP3 DUP8 ADD MLOAD SWAP1 POP JUMPDEST PUSH2 0x1807 DUP6 DUP3 PUSH2 0x178C JUMP JUMPDEST DUP7 SSTORE POP PUSH2 0x186E JUMP JUMPDEST PUSH1 0x1F NOT DUP5 AND PUSH2 0x181D DUP7 PUSH2 0x160A JUMP JUMPDEST PUSH0 JUMPDEST DUP3 DUP2 LT ISZERO PUSH2 0x1844 JUMPI DUP5 DUP10 ADD MLOAD DUP3 SSTORE PUSH1 0x1 DUP3 ADD SWAP2 POP PUSH1 0x20 DUP6 ADD SWAP5 POP PUSH1 0x20 DUP2 ADD SWAP1 POP PUSH2 0x181F JUMP JUMPDEST DUP7 DUP4 LT ISZERO PUSH2 0x1861 JUMPI DUP5 DUP10 ADD MLOAD PUSH2 0x185D PUSH1 0x1F DUP10 AND DUP3 PUSH2 0x1770 JUMP JUMPDEST DUP4 SSTORE POP JUMPDEST PUSH1 0x1 PUSH1 0x2 DUP9 MUL ADD DUP9 SSTORE POP POP POP JUMPDEST POP POP POP POP POP POP JUMP JUMPDEST PUSH0 PUSH1 0x40 DUP3 ADD SWAP1 POP DUP2 DUP2 SUB PUSH0 DUP4 ADD MSTORE PUSH2 0x188E DUP2 DUP6 PUSH2 0x106A JUMP JUMPDEST SWAP1 POP PUSH2 0x189D PUSH1 0x20 DUP4 ADD DUP5 PUSH2 0xFB4 JUMP JUMPDEST SWAP4 SWAP3 POP POP POP JUMP JUMPDEST PUSH32 0x496E73756666696369656E7420706F696E747300000000000000000000000000 PUSH0 DUP3 ADD MSTORE POP JUMP JUMPDEST PUSH0 PUSH2 0x18D8 PUSH1 0x13 DUP4 PUSH2 0x103C JUMP JUMPDEST SWAP2 POP PUSH2 0x18E3 DUP3 PUSH2 0x18A4 JUMP JUMPDEST PUSH1 0x20 DUP3 ADD SWAP1 POP SWAP2 SWAP1 POP JUMP JUMPDEST PUSH0 PUSH1 0x20 DUP3 ADD SWAP1 POP DUP2 DUP2 SUB PUSH0 DUP4 ADD MSTORE PUSH2 0x1905 DUP2 PUSH2 0x18CC JUMP JUMPDEST SWAP1 POP SWAP2 SWAP1 POP JUMP JUMPDEST PUSH0 PUSH2 0x1916 DUP3 PUSH2 0xF13 JUMP JUMPDEST SWAP2 POP PUSH2 0x1921 DUP4 PUSH2 0xF13 JUMP JUMPDEST SWAP3 POP DUP3 DUP3 SUB SWAP1 POP DUP2 DUP2 GT ISZERO PUSH2 0x1939 JUMPI PUSH2 0x1938 PUSH2 0x1542 JUMP JUMPDEST JUMPDEST SWAP3 SWAP2 POP POP JUMP INVALID LOG2 PUSH5 0x6970667358 0x22 SLT KECCAK256 0x4B 0xD6 ORIGIN PUSH20 0x88B3635EDD1D6D7396C47623CE924854CC19CCED LOG0 SWAP7 DUP15 0xD7 PUSH32 0xB8B79664736F6C634300081A0033000000000000000000000000000000000000 "
    },
    "gasEstimates": {
      "creation": {
        "codeDepositCost": "1303400",
        "executionCost": "1354",
        "totalCost": "1304754"
      },
      "external": {
        "businesses(bytes32)": "infinite",
        "claimReward(bytes32,address)": "infinite",
        "getBusinessInfo(bytes32)": "infinite",
        "getPoints(bytes32,address)": "3142",
        "getTransactionCount(bytes32)": "2799",
        "recordTransaction(bytes32,address)": "infinite",
        "registerBusiness(bytes32,string,uint256,uint256,address,string)": "infinite",
        "transactions(bytes32,uint256)": "infinite",
        "updateRewardConfig(bytes32,uint256,uint256)": "infinite",
        "userPoints(bytes32,address)": "3034"
      },
      "internal": {
        "_claimReward(bytes32,address)": "infinite"
      }
    },
    "methodIdentifiers": {
      "businesses(bytes32)": "3bde5981",
      "claimReward(bytes32,address)": "f9d0ff06",
      "getBusinessInfo(bytes32)": "a58ee4c8",
      "getPoints(bytes32,address)": "ad1f43d3",
      "getTransactionCount(bytes32)": "a1fb4acb",
      "recordTransaction(bytes32,address)": "41c2154f",
      "registerBusiness(bytes32,string,uint256,uint256,address,string)": "76768106",
      "transactions(bytes32,uint256)": "0fb2d18c",
      "updateRewardConfig(bytes32,uint256,uint256)": "7348e533",
      "userPoints(bytes32,address)": "892f9171"
    }
  },
  "abi": [
    {
      "anonymous": false,
      "inputs": [
        {
          "indexed": true,
          "internalType": "bytes32",
          "name": "businessHash",
          "type": "bytes32"
        },
        {
          "indexed": false,
          "internalType": "string",
          "name": "name",
          "type": "string"
        },
        {
          "indexed": false,
          "internalType": "address",
          "name": "owner",
          "type": "address"
        }
      ],
      "name": "BusinessRegistered",
      "type": "event"
    },
    {
      "anonymous": false,
      "inputs": [
        {
          "indexed": true,
          "internalType": "bytes32",
          "name": "businessHash",
          "type": "bytes32"
        },
        {
          "indexed": true,
          "internalType": "address",
          "name": "user",
          "type": "address"
        },
        {
          "indexed": false,
          "internalType": "uint256",
          "name": "points",
          "type": "uint256"
        }
      ],
      "name": "PointsEarned",
      "type": "event"
    },
    {
      "anonymous": false,
      "inputs": [
        {
          "indexed": true,
          "internalType": "bytes32",
          "name": "businessHash",
          "type": "bytes32"
        },
        {
          "indexed": true,
          "internalType": "address",
          "name": "user",
          "type": "address"
        },
        {
          "indexed": false,
          "internalType": "uint256",
          "name": "amount",
          "type": "uint256"
        }
      ],
      "name": "RewardClaimed",
      "type": "event"
    },
    {
      "inputs": [
        {
          "internalType": "bytes32",
          "name": "",
          "type": "bytes32"
        }
      ],
      "name": "businesses",
      "outputs": [
        {
          "internalType": "address",
          "name": "owner",
          "type": "address"
        },
        {
          "internalType": "string",
          "name": "name",
          "type": "string"
        },
        {
          "internalType": "uint256",
          "name": "rewardThreshold",
          "type": "uint256"
        },
        {
          "internalType": "uint256",
          "name": "rewardAmount",
          "type": "uint256"
        },
        {
          "internalType": "bool",
          "name": "isActive",
          "type": "bool"
        },
        {
          "internalType": "address",
          "name": "paymentAddress",
          "type": "address"
        },
        {
          "internalType": "string",
          "name": "businessContext",
          "type": "string"
        }
      ],
      "stateMutability": "view",
      "type": "function"
    },
    {
      "inputs": [
        {
          "internalType": "bytes32",
          "name": "businessHash",
          "type": "bytes32"
        },
        {
          "internalType": "address",
          "name": "user",
          "type": "address"
        }
      ],
      "name": "claimReward",
      "outputs": [
        {
          "internalType": "string",
          "name": "",
          "type": "string"
        }
      ],
      "stateMutability": "nonpayable",
      "type": "function"
    },
    {
      "inputs": [
        {
          "internalType": "bytes32",
          "name": "businessHash",
          "type": "bytes32"
        }
      ],
      "name": "getBusinessInfo",
      "outputs": [
        {
          "internalType": "address",
          "name": "owner",
          "type": "address"
        },
        {
          "internalType": "string",
          "name": "name",
          "type": "string"
        },
        {
          "internalType": "uint256",
          "name": "rewardThreshold",
          "type": "uint256"
        },
        {
          "internalType": "uint256",
          "name": "rewardAmount",
          "type": "uint256"
        },
        {
          "internalType": "bool",
          "name": "isActive",
          "type": "bool"
        },
        {
          "internalType": "address",
          "name": "paymentAddress",
          "type": "address"
        },
        {
          "internalType": "string",
          "name": "businessContext",
          "type": "string"
        }
      ],
      "stateMutability": "view",
      "type": "function"
    },
    {
      "inputs": [
        {
          "internalType": "bytes32",
          "name": "businessHash",
          "type": "bytes32"
        },
        {
          "internalType": "address",
          "name": "user",
          "type": "address"
        }
      ],
      "name": "getPoints",
      "outputs": [
        {
          "internalType": "uint256",
          "name": "",
          "type": "uint256"
        }
      ],
      "stateMutability": "view",
      "type": "function"
    },
    {
      "inputs": [
        {
          "internalType": "bytes32",
          "name": "businessHash",
          "type": "bytes32"
        }
      ],
      "name": "getTransactionCount",
      "outputs": [
        {
          "internalType": "uint256",
          "name": "",
          "type": "uint256"
        }
      ],
      "stateMutability": "view",
      "type": "function"
    },
    {
      "inputs": [
        {
          "internalType": "bytes32",
          "name": "businessHash",
          "type": "bytes32"
        },
        {
          "internalType": "address",
          "name": "user",
          "type": "address"
        }
      ],
      "name": "recordTransaction",
      "outputs": [],
      "stateMutability": "payable",
      "type": "function"
    },
    {
      "inputs": [
        {
          "internalType": "bytes32",
          "name": "businessHash",
          "type": "bytes32"
        },
        {
          "internalType": "string",
          "name": "name",
          "type": "string"
        },
        {
          "internalType": "uint256",
          "name": "rewardThreshold",
          "type": "uint256"
        },
        {
          "internalType": "uint256",
          "name": "rewardAmount",
          "type": "uint256"
        },
        {
          "internalType": "address",
          "name": "paymentAddress",
          "type": "address"
        },
        {
          "internalType": "string",
          "name": "businessContext",
          "type": "string"
        }
      ],
      "name": "registerBusiness",
      "outputs": [],
      "stateMutability": "nonpayable",
      "type": "function"
    },
    {
      "inputs": [
        {
          "internalType": "bytes32",
          "name": "",
          "type": "bytes32"
        },
        {
          "internalType": "uint256",
          "name": "",
          "type": "uint256"
        }
      ],
      "name": "transactions",
      "outputs": [
        {
          "internalType": "address",
          "name": "user",
          "type": "address"
        },
        {
          "internalType": "uint256",
          "name": "amount",
          "type": "uint256"
        },
        {
          "internalType": "uint256",
          "name": "timestamp",
          "type": "uint256"
        }
      ],
      "stateMutability": "view",
      "type": "function"
    },
    {
      "inputs": [
        {
          "internalType": "bytes32",
          "name": "businessHash",
          "type": "bytes32"
        },
        {
          "internalType": "uint256",
          "name": "newThreshold",
          "type": "uint256"
        },
        {
          "internalType": "uint256",
          "name": "newAmount",
          "type": "uint256"
        }
      ],
      "name": "updateRewardConfig",
      "outputs": [],
      "stateMutability": "nonpayable",
      "type": "function"
    },
    {
      "inputs": [
        {
          "internalType": "bytes32",
          "name": "",
          "type": "bytes32"
        },
        {
          "internalType": "address",
          "name": "",
          "type": "address"
        }
      ],
      "name": "userPoints",
      "outputs": [
        {
          "internalType": "uint256",
          "name": "",
          "type": "uint256"
        }
      ],
      "stateMutability": "view",
      "type": "function"
    }
  ]
}