{"abi":[{"type":"function","name":"businesses","inputs":[{"name":"","type":"bytes32","internalType":"bytes32"}],"outputs":[{"name":"owner","type":"address","internalType":"address"},{"name":"name","type":"string","internalType":"string"},{"name":"rewardThreshold","type":"uint256","internalType":"uint256"},{"name":"rewardAmount","type":"uint256","internalType":"uint256"},{"name":"isActive","type":"bool","internalType":"bool"}],"stateMutability":"view"},{"type":"function","name":"getBusinessInfo","inputs":[{"name":"businessHash","type":"bytes32","internalType":"bytes32"}],"outputs":[{"name":"owner","type":"address","internalType":"address"},{"name":"name","type":"string","internalType":"string"},{"name":"rewardThreshold","type":"uint256","internalType":"uint256"},{"name":"rewardAmount","type":"uint256","internalType":"uint256"},{"name":"isActive","type":"bool","internalType":"bool"}],"stateMutability":"view"},{"type":"function","name":"getPoints","inputs":[{"name":"businessHash","type":"bytes32","internalType":"bytes32"},{"name":"user","type":"address","internalType":"address"}],"outputs":[{"name":"","type":"uint256","internalType":"uint256"}],"stateMutability":"view"},{"type":"function","name":"getTransactionCount","inputs":[{"name":"businessHash","type":"bytes32","internalType":"bytes32"}],"outputs":[{"name":"","type":"uint256","internalType":"uint256"}],"stateMutability":"view"},{"type":"function","name":"recordTransaction","inputs":[{"name":"businessHash","type":"bytes32","internalType":"bytes32"},{"name":"user","type":"address","internalType":"address"},{"name":"amount","type":"uint256","internalType":"uint256"}],"outputs":[],"stateMutability":"nonpayable"},{"type":"function","name":"registerBusiness","inputs":[{"name":"businessHash","type":"bytes32","internalType":"bytes32"},{"name":"name","type":"string","internalType":"string"},{"name":"rewardThreshold","type":"uint256","internalType":"uint256"},{"name":"rewardAmount","type":"uint256","internalType":"uint256"}],"outputs":[],"stateMutability":"nonpayable"},{"type":"function","name":"transactions","inputs":[{"name":"","type":"bytes32","internalType":"bytes32"},{"name":"","type":"uint256","internalType":"uint256"}],"outputs":[{"name":"user","type":"address","internalType":"address"},{"name":"amount","type":"uint256","internalType":"uint256"},{"name":"timestamp","type":"uint256","internalType":"uint256"}],"stateMutability":"view"},{"type":"function","name":"updateRewardConfig","inputs":[{"name":"businessHash","type":"bytes32","internalType":"bytes32"},{"name":"newThreshold","type":"uint256","internalType":"uint256"},{"name":"newAmount","type":"uint256","internalType":"uint256"}],"outputs":[],"stateMutability":"nonpayable"},{"type":"function","name":"userPoints","inputs":[{"name":"","type":"bytes32","internalType":"bytes32"},{"name":"","type":"address","internalType":"address"}],"outputs":[{"name":"","type":"uint256","internalType":"uint256"}],"stateMutability":"view"},{"type":"event","name":"BusinessRegistered","inputs":[{"name":"businessHash","type":"bytes32","indexed":true,"internalType":"bytes32"},{"name":"name","type":"string","indexed":false,"internalType":"string"},{"name":"owner","type":"address","indexed":false,"internalType":"address"}],"anonymous":false},{"type":"event","name":"PointsEarned","inputs":[{"name":"businessHash","type":"bytes32","indexed":true,"internalType":"bytes32"},{"name":"user","type":"address","indexed":true,"internalType":"address"},{"name":"points","type":"uint256","indexed":false,"internalType":"uint256"}],"anonymous":false},{"type":"event","name":"RewardClaimed","inputs":[{"name":"businessHash","type":"bytes32","indexed":true,"internalType":"bytes32"},{"name":"user","type":"address","indexed":true,"internalType":"address"},{"name":"amount","type":"uint256","indexed":false,"internalType":"uint256"}],"anonymous":false}],"bytecode":{"object":"0x608060405234801561000f575f80fd5b50610c498061001d5f395ff3fe608060405234801561000f575f80fd5b5060043610610090575f3560e01c8063892f917111610063578063892f91711461011d578063a1fb4acb14610155578063a58ee4c814610174578063ad1f43d314610187578063de516e2a1461019a575f80fd5b80630fb2d18c146100945780633bde5981146100d157806361de3a58146100f55780637348e5331461010a575b5f80fd5b6100a76100a2366004610838565b6101ad565b604080516001600160a01b0390941684526020840192909252908201526060015b60405180910390f35b6100e46100df366004610858565b6101f5565b6040516100c89594939291906108b2565b61010861010336600461090f565b6102b8565b005b610108610118366004610941565b610484565b61014761012b36600461096a565b600160209081525f928352604080842090915290825290205481565b6040519081526020016100c8565b610147610163366004610858565b5f9081526002602052604090205490565b6100e4610182366004610858565b6104fd565b61014761019536600461096a565b6105dd565b6101086101a83660046109a8565b610606565b6002602052815f5260405f2081815481106101c6575f80fd5b5f9182526020909120600390910201805460018201546002909201546001600160a01b03909116935090915083565b5f60208190529081526040902080546001820180546001600160a01b03909216929161022090610a6c565b80601f016020809104026020016040519081016040528092919081815260200182805461024c90610a6c565b80156102975780601f1061026e57610100808354040283529160200191610297565b820191905f5260205f20905b81548152906001019060200180831161027a57829003601f168201915b50505050600283015460038401546004909401549293909290915060ff1685565b5f8381526020819052604090205483906001600160a01b031633146103195760405162461bcd60e51b81526020600482015260126024820152712737ba10313ab9b4b732b9b99037bbb732b960711b60448201526064015b60405180910390fd5b5f8481526020819052604090206004015460ff1661036f5760405162461bcd60e51b8152602060048201526013602482015272427573696e657373206e6f742061637469766560681b6044820152606401610310565b5f84815260026020818152604080842081516060810183526001600160a01b038981168083528286018a815242848701908152855460018082018855968b52888b209551600390910290950180546001600160a01b03191695909416949094178355518285015591519501949094558885528252808420928452919052812080548492906103fe908490610ab8565b90915550506040518281526001600160a01b0384169085907fff041da98cfd457d6429785969509880f0239fd88dfc124361b871fe189c687d9060200160405180910390a35f8481526020818152604080832060020154600183528184206001600160a01b0388168552909252909120541061047e5761047e848461073e565b50505050565b5f8381526020819052604090205483906001600160a01b031633146104e05760405162461bcd60e51b81526020600482015260126024820152712737ba10313ab9b4b732b9b99037bbb732b960711b6044820152606401610310565b505f92835260208390526040909220600281019190915560030155565b5f818152602081905260408120805460028201546003830154600484015460018501805460609688968796879692956001600160a01b03909216949390929160ff1690849061054b90610a6c565b80601f016020809104026020016040519081016040528092919081815260200182805461057790610a6c565b80156105c25780601f10610599576101008083540402835291602001916105c2565b820191905f5260205f20905b8154815290600101906020018083116105a557829003601f168201915b50505050509350955095509550955095505091939590929450565b5f8281526001602090815260408083206001600160a01b03851684529091529020545b92915050565b5f8481526020819052604090206004015460ff16156106675760405162461bcd60e51b815260206004820152601b60248201527f427573696e65737320616c7265616479207265676973746572656400000000006044820152606401610310565b6040805160a0810182523381526020808201868152828401869052606083018590526001608084018190525f8981529283905293909120825181546001600160a01b0319166001600160a01b03909116178155905191929091908201906106ce9082610b17565b506040828101516002830155606083015160038301556080909201516004909101805460ff19169115159190911790555184907ffe880ee1dc1393b79a9f14d9792d75f52d7a494b356207faa6716b750b2f92aa906107309086903390610bd7565b60405180910390a250505050565b5f828152602081815260408083206002810154600184528285206001600160a01b038716865290935292205410156107ae5760405162461bcd60e51b8152602060048201526013602482015272496e73756666696369656e7420706f696e747360681b6044820152606401610310565b60028101545f8481526001602090815260408083206001600160a01b0387168452909152812080549091906107e4908490610c00565b92505081905550816001600160a01b0316837ffe236dfc7ce073698734b89da1aee0e7551c9c6d264404c502e6e8fefc1132a8836003015460405161082b91815260200190565b60405180910390a3505050565b5f8060408385031215610849575f80fd5b50508035926020909101359150565b5f60208284031215610868575f80fd5b5035919050565b5f81518084525f5b8181101561089357602081850181015186830182015201610877565b505f602082860101526020601f19601f83011685010191505092915050565b6001600160a01b038616815260a0602082018190525f906108d59083018761086f565b6040830195909552506060810192909252151560809091015292915050565b80356001600160a01b038116811461090a575f80fd5b919050565b5f805f60608486031215610921575f80fd5b83359250610931602085016108f4565b9150604084013590509250925092565b5f805f60608486031215610953575f80fd5b505081359360208301359350604090920135919050565b5f806040838503121561097b575f80fd5b8235915061098b602084016108f4565b90509250929050565b634e487b7160e01b5f52604160045260245ffd5b5f805f80608085870312156109bb575f80fd5b84359350602085013567ffffffffffffffff808211156109d9575f80fd5b818701915087601f8301126109ec575f80fd5b8135818111156109fe576109fe610994565b604051601f8201601f19908116603f01168101908382118183101715610a2657610a26610994565b816040528281528a6020848701011115610a3e575f80fd5b826020860160208301375f928101602001929092525095989597505050506040840135936060013592915050565b600181811c90821680610a8057607f821691505b602082108103610a9e57634e487b7160e01b5f52602260045260245ffd5b50919050565b634e487b7160e01b5f52601160045260245ffd5b8082018082111561060057610600610aa4565b601f821115610b1257805f5260205f20601f840160051c81016020851015610af05750805b601f840160051c820191505b81811015610b0f575f8155600101610afc565b50505b505050565b815167ffffffffffffffff811115610b3157610b31610994565b610b4581610b3f8454610a6c565b84610acb565b602080601f831160018114610b78575f8415610b615750858301515b5f19600386901b1c1916600185901b178555610bcf565b5f85815260208120601f198616915b82811015610ba657888601518255948401946001909101908401610b87565b5085821015610bc357878501515f19600388901b60f8161c191681555b505060018460011b0185555b505050505050565b604081525f610be9604083018561086f565b905060018060a01b03831660208301529392505050565b8181038181111561060057610600610aa456fea2646970667358221220a3b5326cd1534a8337aee1ae57e42c31126c3a654a9f51356ed2280c9bfea81a64736f6c63430008170033","linkReferences":{}},"methodIdentifiers":{"businesses(bytes32)":"3bde5981","getBusinessInfo(bytes32)":"a58ee4c8","getPoints(bytes32,address)":"ad1f43d3","getTransactionCount(bytes32)":"a1fb4acb","recordTransaction(bytes32,address,uint256)":"61de3a58","registerBusiness(bytes32,string,uint256,uint256)":"de516e2a","transactions(bytes32,uint256)":"0fb2d18c","updateRewardConfig(bytes32,uint256,uint256)":"7348e533","userPoints(bytes32,address)":"892f9171"},"id":15}